:100000000C9409030C9426030C9426030C942603E9
:100010000C9426030C9426030C9426030C942603BC
:100020000C9426030C9426030C94E0130C949C135C
:100030000C941A230C9426030C9426030C94260388
:100040000C9426030C9426030C9426030C9426038C
:100050000C9426030C94B7140C9426030C942603DA
:100060000C9426030C9426030C9426030C9426036C
:100070000C9426030C9426030C9426030C9426035C
:100080000C9426030C9426030C9426030C9426034C
:100090000C9426030C9426030C9426030C9426033C
:1000A0000C9426030C9426030C94260300010101F2
:1000B0000101010101010202020202020202020325
:1000C00003030303030303040404040404040505F5
:1000D00005050506060606060707070707080808B8
:1000E00008090909090A0A0A0B0B0B0C0C0C0D0D67
:1000F0000D0E0E0E0F0F0F101011111112121313FF
:100100001414151516161717181819191A1A1B1B77
:100110001C1D1D1E1E1F20202122222324242526D3
:1001200026272829292A2B2C2D2D2E2F303132320B
:10013000333435363738393A3B3C3D3E3F40414217
:10014000434445464748494A4C4D4E4F50515354FD
:10015000555658595A5B5D5E5F61626465666869B1
:100160006B6C6D6F7072737577787A7B7D7E808231
:10017000838587888A8C8E8F91939596989A9C9E7A
:10018000A0A2A3A5A7A9ABADAFB1B3B5B7BABCBE8A
:10019000C0C2C4C6C9CBCDCFD1D4D6D8DBDDDFE257
:1001A000E4E7E9EBEEF0F3F5F8FAFDFFFFAA7F557F
:1001B000402223252628292A2C2D2F30323335366C
:1001C000383A3B3D3E4042434547494A4C4E5051E8
:1001D000535557595A5C5E6062646668696B6D6F0F
:1001E00071737577797B7D7F81838587898A8C8E12
:1001F00090929496989A9C9E9FA1A3A5A7A8AAAC1A
:10020000AEAFB1B3B4B6B8B9BBBCBEBFC1C2C3C553
:10021000C6C7C9CACBCCCDCED0D1D2D2D3D4D5D6F5
:10022000D7D7D8D9D9DADADBDBDBDCDCDCDCDCDD28
:10023000DDDDDDDCDCDCDCDCDBDBDBDADAD9D9D80C
:10024000D7D7D6D5D4D3D2D2D1D0CECDCCCBCAC9A4
:10025000C7C6C5C3C2C1BFBEBCBBB9B8B6B4B3B1D3
:10026000AFAEACAAA8A7A5A3A19F9E9C9A9896946E
:1002700092908E8C8A89878583817F7D7B79777543
:1002800073716F6D6B6968666462605E5C5A595722
:10029000555351504E4C4A4947454342403E3D3BE1
:1002A0003A3836353332302F2D2C2A29282625236B
:1002B0002235002A002B00E100E00000001E00149F
:1002C0000004001D0002514C001F001A0016001B04
:1002D0000001512C002000080007000600E3002A5E
:1002E000002100150009001900E200490022001752
:1002F000000A000500000047002900390000002F17
:100300000000004600230031000000300000004AD9
:100310000024001C000B00110000004D00250018F7
:10032000000D001000E6004B0026000C000E003609
:100330000050002800270012000F00370051002C49
:10034000002D0013003300380052004E002E002A0A
:10035000003400E5004F0000000100010001000131
:100360000001000000010001000100010001000186
:100370000001000100010001000100010001000175
:100380000001000100010001000100010001000165
:100390000001000100010001000100010000000156
:1003A0000001000100000001000000010001000147
:1003B0000000000100000001000100010001000137
:1003C000000000010053005F005C00590062000162
:1003D00000540060005D005A006200010055006199
:1003E000005E005B00630001005600570057005894
:1003F000005800010001000100010001000100009F
:10040000002900010001000100010000003A00681D
:10041000000100010001002F5D3B006900010001A7
:10042000000100CA5C3C006A0026022F000100CBDC
:100430005C3D006B002702300001002E5D3E006C29
:1004400000350035020000C45C3F006D0000000173
:100450000000002D5D40006E00000001000000C3A0
:100460005C41006F000100010000002C5D42007043
:1004700000010001000100010043007100010001C2
:10048000003700C65C44007200010001000100C793
:100490005C45007300010001000100010001000142
:1004A00000010001000100000032190A00047F3F32
:1004B0001F643214643214783C1E1E140A050501B0
:1004C0000980A101850319012AB700150126B7008B
:1004D000950175108100C0050C0901A10185041961
:1004E000012AA002150126A002950175108100C005
:1004F00005010906A1018505050719E029E7150091
:1005000025019508750181020507190029EF1500DD
:10051000250195F075018102050819012905950548
:1005200075019102950175039101C005010906A1AC
:1005300001050719E029E7150025019508750181D6
:10054000029501750881010507190029FF1500268C
:10055000FF00950675088100050819012905950514
:1005600075019102950175039101C009023B0002DA
:100570000100A0FA09040000010301010009211192
:100580000100012240000705810308000A09040157
:10059000000103000000092111010001226D000784
:1005A00005820320000A12010002000000089732B1
:1005B0007549010001020001220345007200670035
:1005C0006F0044006F007800200045005A002000B2
:1005D0005300680069006E006500000030035A0097
:1005E00053004100200054006500630068006E0065
:1005F0006F006C006F006700790020004C00610004
:1006000062007300200049006E00630000000403D4
:10061000090411241FBECFEFDAE0DEBFCDBF23E017
:10062000A2E8B1E001C01D92A633B207E1F711E0E4
:10063000A0E0B1E0E2EAFDE402C005900D92A2382C
:10064000B107D9F70E9443200C9490260C94000027
:10065000E8EDF0E080818E7F80831092E2001092BE
:10066000DA001092E100A0EEB0E08C9181608C93F2
:1006700080818F77808319BCA7EDB0E08C918E7F4D
:100680008C9380818F7E80831092FC02089520914C
:10069000E4003091E50095E6A9012091EC00822F5D
:1006A000817020FF06C08091E80080FF06C080E0D6
:1006B00008952091E80022FD1AC08091210388232B
:1006C00089F0853089F08091EB0085FD0FC0209185
:1006D000E4003091E50042175307F9F29150E1F63A
:1006E00084E0089582E0089583E0089581E008950C
:1006F000EF92FF920F931F93CF937C018B010E9487
:100700004703C82F811117C08091E80085FD0BC0F9
:100710008091E8008E778093E8000E944703882349
:1007200099F3C82F08C0F70181917F018093F100F0
:100730000150110949F78C2FCF911F910F91FF9014
:10074000EF9008958091230387FF13C08091E80004
:1007500082FF06C08091E8008B778093E80004C098
:10076000809121038111F2CF089580912103882384
:10077000D9F38091E80080FFF8CF8091E8008E7770
:10078000ECCF982F9093E900242F762F50E0891713
:1007900031F07091EC002091ED005091F00021FDBE
:1007A00007C09F5F973071F78093E90081E008955B
:1007B0003091EB003E7F3093EB003091ED003D7FB8
:1007C0003093ED003091EB0031603093EB0070938B
:1007D000EC002093ED005093F0002091EE0027FDF7
:1007E000E0CF80E00895CF92DF92EF92FF920F93D7
:1007F0001F93CF93DF93C8EDD0E088818F7E8883ED
:10080000E7EDF0E080818160808384E082BF81E059
:100810008093FC0288818E7F888302EE10E0F801CD
:1008200010821092DA0081EEC82ED12CF6011082CF
:1008300088818F77888388818068888388818F7D8D
:10084000888319BC10922103109222031092200376
:1008500010921F0390EEE92EF12CF70180818B7F1F
:10086000808388818160888342E060E080E00E942C
:10087000C103F60180818E7F8083F80180818160D1
:100880008083808188608083F70180818E7F808370
:10089000888180618883DF91CF911F910F91FF90B4
:1008A000EF90DF90CF900895FC0180912903909103
:1008B0002A0386179707A0F06115710529F4909116
:1008C000E8009E779093E80090E06115710551F47F
:1008D000911108C08091E80082FF34C080E0089543
:1008E000BC01F2CF809121038823C1F18530C1F191
:1008F0008091E80083FD30C08091E80082FDEACF5E
:100900008091E80080FFE1CF8091F3002091F20018
:10091000382F6115710519F02830310558F091E034
:100920002830310509F090E02091E8002E772093DF
:10093000E800CBCF81918093F100615071092F5F66
:100940003F4FE7CF80912103882341F0853041F06C
:100950008091E80083FFBECF81E0089582E0089592
:1009600083E00895089508958091FE0208952091EE
:1009700024012223C9F02091C50227FF15C0E62FCC
:10098000E695E695E695EE31D8F4E80FF92FF11DDE
:10099000677021E030E001C0220F6A95EAF72095E8
:1009A0008281282322830895FC01329608962191A2
:1009B000621303C0DF0111971C92E817F907B9F71A
:1009C0000895209124012223C1F02091C50227FF20
:1009D00014C0E62FE695E695E695EE31F8F4E80FBB
:1009E000F92FF11D677021E030E001C0220F6A95F8
:1009F000EAF78281822B82830895FC0132962FEFE1
:100A000030E04191641751F02F3F19F4411101C0BA
:100A1000232F3F5F3630A9F72F3F09F40895820F47
:100A2000911D27FD9A95FC01628308958091AC0287
:100A300081111092AC0208958091AB029091AA02AC
:100A4000892B9091A902892B809382019091AC020D
:100A50009923A1F0892B809382018091240188231E
:100A600041F18091C50287FF24C08EE1E4E8F1E006
:100A700090E0815000F591110E941605E091CC02A2
:100A8000F091CD023097E1F080912401882359F054
:100A90008091C50287FF07C0809182018093830106
:100AA00085E0809382010280F381E02D82E891E06D
:100AB000099486E0DBCF21912223D9F29F5FD9CF21
:100AC0000895E92FEE0FE90FEE0F8E0F982F977014
:100AD00086958695869525E0829FF0011124EF5832
:100AE000FD4F50E040E080E0219130E0092E02C04F
:100AF000369527950A94E2F721703327042E01C01A
:100B0000220F0A94EAF7822B4F5F5F4F4530510561
:100B100059F70895E92FEE0FE90FEE0F8E0F982F7A
:100B2000977041E001C0440F9A95EAF78695869543
:100B3000869595E0899FF0011124EF58FD4F30E034
:100B400020E070E05191DF011197CB01022E02C02D
:100B5000969587950A94E2F781708195852784237D
:100B600085278C932F5F3F4F2530310559F7089526
:100B70008091700290913F02981301C008958F5F99
:100B80008770FACF882341F080959091AB0289233A
:100B90008093AB020C941C050895882339F0909142
:100BA000AB02982B9093AB020C941C0508952091F6
:100BB0003502309136022817390771F090933602CA
:100BC00080933502E091CC02F091CD02309721F074
:100BD0000084F185E02D099408952091330230912D
:100BE00034022817390771F090933402809333024E
:100BF000E091CC02F091CD02309721F00680F78190
:100C0000E02D099408951092AA021092A9020E9460
:100C10001C0590E080E00E94ED0590E080E00C94DF
:100C2000D7056093AD027093AE028093AF029093AC
:100C3000B0020C940306882379F19CEF980F913A47
:100C400038F4682F82E891E00E94B7040C941C05E8
:100C500090E2980F983088F4877021E030E0A90185
:100C600002C0440F551F8A95E2F7CA018095909102
:100C7000AB0289238093AB02E9CF9BE5980F9330B9
:100C800020F490E080E00C94ED05885A873120F440
:100C900090E080E00C94D7050895CF93C82F882367
:100CA00009F467C08CEF8C0F813AC0F58091240164
:100CB000882311F18091C50287FF1EC0EC2FE695B5
:100CC000E695E695F0E0EE57FE4F828190E04C2FDE
:100CD000477021E030E002C0220F331F4A95E2F74F
:100CE00082239323892B91F06C2F82E891E00E945C
:100CF000B7040E941C050AC0E4E8F1E08AE891E02C
:100D00002191C21789F38E179F07D1F76C2F82E8C4
:100D100091E00E94E104CF910C941C0580E28C0FBD
:100D2000883068F4C77021E030E001C0220FCA9516
:100D3000EAF78091AB02822B8093AB02ECCFEBE51C
:100D4000EC0FE33040F4F0E0E05BFE4F808190E098
:100D5000CF910C94ED05C85AC73158F4EC2FF0E050
:100D6000EE0FFF1FED5AFE4F80819181CF910C94C1
:100D7000D705CF910895E091CC02F091CD02309744
:100D800021F00190F081E02D099480E00895FA01AE
:100D9000811101C0FB0109948091E502982F9E7F8B
:100DA00029F4817082608093E50208958635E8F326
:100DB00081708465F8CFAF92BF92DF92EF92FF927D
:100DC0000F931F93CF93DF93082F162FE901E42F82
:100DD000F0E0E455FF4F611111C0E4915E2F4E2FFA
:100DE0004983E8835A831B82DF91CF911F910F9132
:100DF000FF90EF90DF90BF90AF900895E62EF12C1A
:100E00004491D42EE42FF0E026E0829FC00111240B
:100E10002FEF30E0B9010E941424802F90E0880F5A
:100E2000991F55E5569FD001579FB00D11248A1B7D
:100E30009B0B982F990F890F5901AE18BF08AE9ED2
:100E4000D001AF9EB00DBE9EB00D11245B2F189F38
:100E500080011124012F11275901A01AB10AAE9E59
:100E60008001AF9E100DBE9E100D11245901A81ACD
:100E7000B108AE9CC001AF9C900DBE9C900D11249A
:100E8000892F9927281B390B2E9FC0012F9F900D6A
:100E90003E9F900D1124E92F62307105A1F050F4AE
:100EA0006115710509F49CCF6130710581F0EB2F5C
:100EB000512F96CF6430710569F080F0663071056E
:100EC00009F48ECFF4CFE42F4B2F592F89CFE42F85
:100ED000412F86CFEB2F542F492F82CF4B2F5D2DE3
:100EE000E12F7ECF9091C50292FF06C0282F287176
:100EF0002830F9F4877F846093FF06C0282F28717B
:100F00002831F1F4877E84612091C60220FF06C05B
:100F1000382F38713830D9F4877F816021FF06C0BF
:100F2000282F28712831D1F4877E816194FD877E36
:100F30000895282F24712430F9F68B7F8860DCCF48
:100F4000282F2471243101F78B7E8861DDCF382F63
:100F50003171313019F78E7F8860E0CF282F2171F1
:100F6000213121F78E7E8861E1CFCF93DF93972FD8
:100F700070E026E0929F600D711D1124FB0134E5A5
:100F8000839FE00DF11D1124EE0FFF1FEF54FD4F65
:100F9000C591D491CE01C238D105B9F1E8F5C1337C
:100FA000D10509F499C050F5C932D10509F48DC0B5
:100FB000CA32D10509F497C0C11542E5D40708F03B
:100FC000B6C0C11521E5D20708F024C1C83ED1053D
:100FD00008F09DC0C03ED10568F5C83AD10508F0BB
:100FE00089C0C53AD10508F0EDC0C130D10511F175
:100FF000209709F443C02497E8F440C0C533D105D5
:1010000009F45CC0C933D105B9F62091C50223703B
:1010100089F080EE90E00EC0C33ED10591F168F4F6
:10102000C03ED105F9F0C23ED10531F62091C5028E
:1010300022FD20C0DF91CF910895C63ED10561F118
:10104000C73ED10581F1C43ED10509F0B5CF20914D
:10105000C60221FFEFCF8091C50284FD0FC087EE4D
:1010600090E0E8CF2091C50220FD01C13091C60279
:1010700030FFE0CF83EE90E024FFDCCF90E080E013
:10108000D9CF2091C50222FDF5C03091C60230FDB6
:10109000C0CF24FFCFCFF2CF2091C50223FFCACF0C
:1010A00024FDECCFDCCF2091C50223FDE6C03091BA
:1010B000C60231FFEECF84EE90E0BCCF2091C50296
:1010C00025FFB8CF89E290E0B5CF2091C50225FF7A
:1010D000B1CF85E390E0AECF2091C50226FFAACF25
:1010E0008AE290E0A7CF2091C50226FFA3CF81E33B
:1010F00090E0A0CFCF3BD10508F6C85AD0E0CC0F86
:10110000DD1FCD5ADE4F88819981946493CFC1153C
:1011100030E5D30708F062C0C11540E4D40708F0F9
:1011200059C0DA95C115DF4108F484CFA7CFC115A6
:1011300036E5D30718F5C11545E5D40708F080C09A
:10114000C11584E5D80708F076C09C2F9695969532
:10115000AE0143705527C115D34508F460C021E0A6
:1011600030E002C0220F331F4A95E2F740E2949F1D
:10117000C0011124822B932B9A685CCFC1153AE5EC
:10118000D30778F4C11549E5D40708F063C0C11549
:1011900088E5D80708F472CF9C2F8827806F906A63
:1011A00049CFCE0190568115904208F067CF8D2F20
:1011B0008F710E94720790E0982F882788279F716F
:1011C0008C2B46C0C55AD0E0C05BDE4F888190E0D2
:1011D000906430CFCE019F70906A2CCF9E01E4E0E6
:1011E00036952795EA95E1F723708C2F869586959D
:1011F000837030E2839FC0011124922BC37021E0E1
:1012000030E002C0220F331FCA95E2F7822B932BE6
:101210009C6810CF9C2F8827816F906A0BCF21E0AC
:1012200030E002C0220F331F4A95E2F740E2949F5C
:10123000C0011124EBCF9C2F8827846F906AFACECF
:101240008C2F0E94720790E0982F882788279F7123
:101250009062F0CE8C2F8F700E94720734E0D6958A
:10126000C7953A95E1F7CF709C2F9069E3CE89E35B
:1012700090E0E0CE82EE90E0DDCE86EE90E0DACE39
:10128000BF92CF92DF92EF92FF920F931F93CF9373
:10129000DF938C01C090C802D090C902E090CA02CE
:1012A000F090CB028091AD029091AE02A091AF027E
:1012B000B091B002C82AD92AEA2AFB2ACFE1D0E0AD
:1012C000BC2ED701C6010C2E04C0B695A7959795E4
:1012D00087950A94D2F780FD0EC0219788F7B12C2C
:1012E0008B2DDF91CF911F910F91FF90EF90DF90A9
:1012F000CF90BF900895B8018C2F0E94B507019739
:1013000061F3EECFCF93DF93EC010E944009BE0161
:10131000DF91CF910C94B5070E948209292F2F707D
:1013200092959F7092509E3078F4E92FF0E0EE563F
:10133000F94D0C943C24803F19F020F4883E20F4B1
:1013400081E00895843FE1F380E00895883EC0F392
:10135000813FD1F7F5CF822F8695869586950895A2
:1013600027982F98089526982E98089525982D98B7
:10137000089556985E980895279A2F9A0895269A68
:101380002E9A0895259A2D9A0895209828982198A4
:10139000299822982A9823982B9852985A985398CB
:1013A0005B983E98469808958098889A8198899A83
:1013B00084988C9A85988D9A86988E9A87988F9A19
:1013C0000895CF93DF9300D00F92CDB7DEB7909101
:1013D0002103943019F589837B836A8382E08093AB
:1013E000E9008FEF9091E800815095FD06C095EDE2
:1013F0009A95F1F700008111F5CF8091E80085FF03
:101400000DC050E040E063E070E0CE0101960E9424
:1014100078038091E8008E778093E8000F900F901A
:101420000F90DF91CF910895BC0184E00C94E10905
:10143000BC0183E00C94E109CF93DF93EC01809130
:1014400024018823B1F18091C50287FF32C060E298
:1014500082E08093E9008FEF9091E800815095FD44
:1014600006C095ED9A95F1F700008111F5CF8091B6
:10147000E80085FF1BC08091240170E050E040E04F
:10148000811104C050E040E068E070E0CE010E94AD
:1014900078038091E8008E778093E80080E2FE0177
:1014A000AFEFB2E001900D928A95E1F7DF91CF9115
:1014B000089568E081E0CDCFEF92FF920F931F93E4
:1014C000CF93DF930E94B9090E94B6090E94B30925
:1014D0000E94B00988E8E82EF12C8FEF90E0F70128
:1014E000918380830AE810E0F80191838083CCE83F
:1014F000D0E0998388830E94C209FFEF20E782E051
:10150000F15020408040E1F700C000000E94BF0978
:101510009FEFE0E7F2E09150E040F040E1F700C0DB
:1015200000000E94BC092FEF80E792E0215080402C
:101530009040E1F700C000000E94B609EFEFF0E72D
:1015400022E0E150F0402040E1F700C000000E949E
:10155000B3098FEF90E7E2E081509040E040E1F77F
:1015600000C000000E94B0098091B3028770FFEFB5
:101570008F9FC001112495958795959587959927FB
:10158000F70191838083F801918380839983888315
:101590000E94B9090E94B6090E94B309DF91CF9158
:1015A0001F910F91FF90EF900C94B009CF9384E0BE
:1015B00090E00E94E525C82F81E290E00E94E52599
:1015C000982F8C2FCF910895CF92DF92EF92FF92B8
:1015D0006B017C010E94CC06B701A60188E090E077
:1015E000FF90EF90DF90CF900C940B268091E90252
:1015F000882319F081508093E9026091E50270918F
:10160000E6028091E7029091E8020C94E40A80914E
:10161000E902833018F48F5F8093E9026091E5025C
:101620007091E6028091E7029091E8020C94E40A3E
:10163000E5EEF2E083E0808311828FEF8283838383
:10164000148260817181828193810C94E40A6FEE2F
:101650007EEF90E080E00E94172660E082E090E05C
:101660000E94F92560E083E090E00E94F925109245
:10167000AD021092AE021092AF021092B00260E082
:1016800084E090E00E94F92560E081E290E00E9411
:10169000F92560E085E090E00E94F92560E086E0B1
:1016A00090E00E94F9256FEF87E090E00E94F92515
:1016B00040E050E0BA0188E090E00E940B2660E034
:1016C0008DE090E00E94F92540E050E0BA0188E109
:1016D00090E00E940B2660E087E190E00E94F925EF
:1016E00040E050E0BA018CE190E00E940B2660E0FF
:1016F00080E290E00E94F92540E050E0BA0188E1E4
:1017000090E00E940B261092B3021092B402109245
:10171000B5021092B60284E080618093B3024091DA
:10172000B3025091B4026091B5027091B6028FE09D
:1017300090E00E940B2640E050E0BA0183E190E087
:101740000C940B261092AB0280912401E4E8F1E0A6
:10175000882359F08091C50287FF07C08EE1DF0121
:101760001D928A95E9F70C94030686E0F8CF1F9343
:10177000CF93DF93CDB7DEB7AA970FB6F894DEBF4D
:101780000FBECDBF83E293E02091F100FC012193D5
:10179000CF01F3E08B329F07B9F7809124038330A8
:1017A00009F46FC0B8F4813009F446C0823009F4FE
:1017B000B0C08091E80083FF7BC2809123039091A9
:1017C00024039A3008F074C2E92FF0E0E056F94D96
:1017D0000C943C248A3009F48BC08B3009F46EC021
:1017E000893039F780912303813219F780912703DB
:1017F000909128030297E8F68091E800877F809314
:10180000E8008091E80082FF37C09091F30080915A
:10181000F200029729F48091F1008B7F813021F44E
:101820008091F1008093FE028091E8008B77809395
:10183000E8000E94A203BDCF80912303813A09F002
:10184000B8CF8091E800877F8093E80080912703DC
:1018500090912803892B61F460E28FEF92E070E0B1
:101860000E9454048091E8008B778093E800A1CF18
:1018700060E090E080E0F3CF809121038111C1CF3F
:1018800098CF80912303813A09F093CF8091270369
:1018900090912803892B09F08CCF8091E800877FF5
:1018A0008093E8008091E80080FFFCCF80912401C4
:1018B0008093F1008091E8008E77B9CF8091230367
:1018C000813209F076CF8091270390912803892BEC
:1018D00009F06FCF8091E800877F8093E8000E9435
:1018E000A20380912503809324010E94A20B61CF63
:1018F00080912303813209F05CCF8091E800877FDB
:101900008093E8000E94A203809126038093FD0249
:1019100050CF80912303813A09F04BCF8091E800AA
:10192000877F8093E8008091E80080FFFCCF809162
:10193000FD02BECF803899F0823809F0B9C180919C
:1019400027038F70873008F0B3C18093E90080913E
:10195000EB0085FB882780F91092E90006C0809192
:101960001F0390912003911182609091E800977F6E
:101970009093E8008093F1001092F1008091E800CC
:101980008E7792C1882309F480C1823009F090C11A
:1019900080912503811183C1809127038F702FEFE0
:1019A000280F263008F084C18093E9002091EB00D5
:1019B00020FF75C1933031F48091EB0080628093F9
:1019C000EB006DC19091EB0090619093EB0021E0F2
:1019D00030E001C0220F8A95EAF72093EA001092C6
:1019E000EA008091EB008860EACF811161C110911B
:1019F00025031F778091E3008078812B8093E3009B
:101A00008091E800877F8093E8000E94A203809184
:101A1000E80080FFFCCF8091E30080688093E300C2
:101A200082E0111183E08093210342C1805882300B
:101A300008F03EC180912503909126038C3D23E060
:101A40009207A1F583E08A838AE289834FB7F894ED
:101A5000DE01139620E03EE051E2E32FF0E05093E8
:101A60005700E49120FF03C0E295EF703F5FEF70F5
:101A70008E2F90E0EA30C0F0C7968D939D932F5F34
:101A8000243159F74FBF8091E800877F8093E800A9
:101A90006AE270E0CE0101960E9454048091E80051
:101AA0008B778093E80004C1C096E7CF409127036D
:101AB00050912803292F33272330310509F444C0DE
:101AC00078F52130310509F46FC08BE390E0EBE647
:101AD000F5E02230310509F0EBC02091E800277FC6
:101AE0002093E8002091290330912A03821793075D
:101AF00008F49C0140E02115310509F064C0411152
:101B000062C08091E80082FDC9CF809121038823C3
:101B100029F2853019F28091E80083FFF2CFBECF21
:101B200021323105A9F12232310509F0C1C0411538
:101B3000510509F443C04130510509F0B9C08DE6A3
:101B400090E0EEEBF4E0C9CF992781309105C1F028
:101B5000009759F0029709F0ABC0E8EBF5E0E4918B
:101B60008E2F90E0E8EBF5E007C0EEE0F6E0E491C0
:101B70008E2F90E0EEE0F6E0009709F499C0ADCF2B
:101B8000ECEDF5E0E4918E2F90E0ECEDF5E0F4CF94
:101B90004115510571F04130510509F089C089E0C6
:101BA00090E0E6E9F5E099CF82E190E0E6EAF5E041
:101BB00094CF89E090E0EDE7F5E08FCF80E490E00E
:101BC000EBE2F5E08ACF80912103882309F466CF08
:101BD000853009F463CF8091E80083FD5FCF809169
:101BE000E80082FD8ECF8091E80080FF84CF909145
:101BF000F3008091F2002115310519F0883091052C
:101C000050F041E0089709F040E08091E8008E77BD
:101C10008093E80070CF44914093F10031962150B9
:101C200031090196E8CF803809F042C08091E80080
:101C3000877F8093E800809122038093F1009ECEFD
:101C4000811136C010912503123090F58091E80083
:101C5000877F8093E800109322030E94A203112340
:101C600011F084E005C08091E30087FDFACF81E0A8
:101C70008093210342E061EC81E00E94C10342E2D3
:101C800061EC82E00E94C10313C080912503813082
:101C900079F481E0933009F080E080932003109282
:101CA000E9008091E800877F8093E8000E94A2030A
:101CB0008091E80083FF0AC08091E800877F8093CD
:101CC000E8008091EB0080628093EB00AA960FB64B
:101CD000F894DEBF0FBECDBFDF91CF911F91089565
:101CE000CF93C82F873070F580911801909119011A
:101CF000892B89F564E670E080E40E944723909385
:101D0000190180931801892BD1F464E670E082E117
:101D10000E94A3239093190180931801892B79F4D1
:101D200081E090E001C0880FCA95EAF764E670E0B0
:101D300080950E94A3239093190180931801CF915D
:101D40000C94F6238A30B9F040F4883071F0893071
:101D500079F0209A2898CF9108958C3091F070F006
:101D60008D30B9F73E9A4698F6CF219A2998F3CF4D
:101D7000229A2A98F0CF239A2B98EDCF529A5A980C
:101D8000EACF539A5B98E7CFCF93DF938091E50238
:101D900080FD0BC0ECEAF1E0118210821282138206
:101DA000349651E0E83EF507B9F7CCEAD1E0FE0100
:101DB000928120813181892F291708F4822F3817C9
:101DC00008F4832F8383381B3183281B2083981BBF
:101DD0009283349681E0E83EF80751F70E94412350
:101DE00064E670E084E80E94472364E670E088813E
:101DF0000E94A32364E670E089810E94A32364E625
:101E000070E08A810E94A32364E670E08B810E94C7
:101E1000A323249691E0C83ED90739F70E94F62300
:101E2000579A3BB13F772BB120684FB7F8948CEAB3
:101E300091E0FC015191CF0168E02BB9000000C096
:101E400057FF3BB9550F000000C000C000C03BB9B0
:101E500000C06A9591F7F1E0883E9F0751F74FBFA8
:101E60008FE594E00197F1F700C00000DF91CF917A
:101E700008958F929F92AF92BF92CF92DF92EF928E
:101E8000FF920F931F93CF93DF93FC01B280948056
:101E900081E08483C8EED1E00CEA11E08BE4A82E47
:101EA00088248394EE24EA94F12C2BE4C22ED12CC6
:101EB00091101DC01B821A8298014A816981888114
:101EC0000E94DB0625960C5F1F4F82E0C333D807C4
:101ED00079F7DF91CF911F910F91FF90EF90DF90F5
:101EE000CF90BF90AF909F908F900C94C40E2B8199
:101EF000222309F121502B833C818A2D821B311131
:101F000001C0822F9091E802899FC0011124B6017F
:101F10000E9414246A83211104C0332311F01C820F
:101F2000AB8222E02B1540F28091E60288838091FB
:101F3000E7028983C1CF0E949D24823091400CF03A
:101F4000BBCF82E08B15C0F40E949D24B7010E9494
:101F50002824888322E02B1590F40E949D24209150
:101F6000E7022695622F70E00E942824280F29831B
:101F70001A82AB828C82A0CF8091E602EACF2091B8
:101F8000E702F5CFEF92FF921F93CF93DF93EC011F
:101F90008CEAE82E81E0F82E10E08C8197014091C8
:101FA000E8026091E702810F0E94DB061F5E84E079
:101FB000E80EF11C1F3F89F70E94C40E9A818C81A4
:101FC00090FF08C08F5F8C83DF91CF911F91FF90AE
:101FD000EF9008958150F7CFBF92CF92DF92EF92AA
:101FE000FF920F931F93CF93DF93FC018281DD2437
:101FF000DA9480FD02C0DD24D3940CEA11E0D0E035
:10200000C0E02FE0B22EF8011182108212821382FA
:1020100094E0E92EF12CC12C8091A9018C0D803126
:102020000CF43DC06B2D0E940624892F082E000C55
:10203000990B8C179D0791F48091E8028E9DA00169
:102040008F9D500D112455954795559547959801AD
:102050006091E7028091E6020E94DB06CD0CF1E080
:10206000EF1AF108C9F621960C5F1F4FCF30D1054A
:1020700051F60E94C40E8091A90191E0D91215C0B9
:10208000811111C08EE08093A901DF91CF911F9142
:102090000F91FF90EF90DF90CF90BF90089587FF52
:1020A000C5CF815FC3CF8150EECF90E00196BE01D6
:1020B0000E942824E8CF0F931F93CF93DF93CCEA9D
:1020C000D1E0FE011182108212821382349681E0E7
:1020D000E83EF807B9F710E000E08091AA01082E69
:1020E000000C990B081719078CF180911601082E26
:1020F000000C990B801791074CF19E014091E8026A
:102100006091E7028091E6020E94DB060F5F1F4F9D
:1021100024960F30110509F70E94C40E8091150115
:102120009091AA01980F9093AA0120911601280F6F
:1021300020931601121614F49E301CF081958093A2
:102140001501DF91CF911F910F9108951982188287
:102150001A821B82DBCF8F929F92AF92BF92CF9257
:10216000DF92EF92FF920F931F93CF93DF93EC01D7
:102170004C81042F10E09801D8010E9481269B0118
:10218000AC010E944C264B015C01E0E2F0E0E01B58
:10219000F10BA5E5B0E0AC019B010E944C266B0160
:1021A0007C019F01DF010E9442249B01AC010E943F
:1021B00057269B01AC01280D391D4A1D5B1DC70127
:1021C000B6010E945F26F22E822F90E039E23F1581
:1021D000D8F143E0249F9001112435952795122FC3
:1021E00010959CEAC92E91E0D92E00E085E5E82EF5
:1021F000EF188E2D01FD8F2D9601412F6091E70282
:102200000E94DB060F5F54E0C50ED11C0F3089F72A
:102210000E94C40E9C8181E0992319F0903219F438
:102220008FEF8093170180911701890F8C83DF91C5
:10223000CF911F910F91FF90EF90DF90CF90BF90C3
:10224000AF909F908F90089525E530E0A901481B3D
:10225000590BCA019A01220F331F280F391F37FF6C
:10226000BCCF2F5F3F4FB9CFEF92FF920F931F93D9
:10227000CF93DF938C01CCEAD1E0F12CE12CF80173
:1022800094816091E7028091E602F7E0EF16F10495
:10229000FCF49923F9F09E014091E8020E94DB06CC
:1022A0002FEFE21AF20A24968FE0E816F10439F7CC
:1022B0000E94C40EF801848190E0019681709927F4
:1022C0008483DF91CF911F910F91FF90EF9008953C
:1022D000992309F39E0140E0E1CF9091E50290FF40
:1022E0000DC0ECEAF1E0818360834283138234966F
:1022F00091E0E83EF907B9F70C94C40E08950F93E6
:102300001F93CF93DF9300D000D0CDB7DEB78C0101
:102310008091AB0181110AC09E012F5F3F4F4FEFAB
:102320006FEF0E94DB068A818093AB01F801648124
:10233000613069F08091AB0140E0662361F040E0DC
:10234000623011F44091AB0180E060E004C0609124
:10235000AB0140E080E00E946D11F801848190E0C3
:10236000019663E070E00E94282484830F900F9010
:102370000F900F90DF91CF911F910F910895CF9300
:10238000DF9300D000D0CDB7DEB79091E50290FF8B
:102390000AC09E012F5F3F4F0E94DB064B8169817F
:1023A0008A810E946D110F900F900F900F90DF9116
:1023B000CF910895CF93DF93EC01EC81F0E0EF54DF
:1023C000FE4F4491E5EEF2E0628181810E94BF11EF
:1023D0008C818F5F8C83DF91CF910895CF93DF93B2
:1023E000EC01E5EEF2E0438162818C810E94BF1135
:1023F0008C818F5F8C83DF91CF9108955F926F9274
:102400007F928F929F92AF92BF92CF92DF92EF9284
:10241000FF920F931F93CF93DF9300D000D0CDB7DF
:10242000DEB7182F762E042F622E9091E50290FFD2
:1024300029C0E92FE695AE2FB0E0AB5DBE4F8C9181
:102440008093EA029E7F923089F59E012F5F3F4F75
:10245000812F0E94DB064B8169818A810E946D1168
:102460001093E6027092E7020093E802662051F0B2
:102470006091E5027091E6028091E7029091E80296
:102480000E94E40A0F900F900F900F90DF91CF9170
:102490001F910F91FF90EF90DF90CF90BF90AF9082
:1024A0009F908F907F906F905F900895823019F485
:1024B0000091E802D5CF863019F41091E602D0CF12
:1024C0008930D9F3893161F6E9518E2F8170582E08
:1024D000E695F0E0E455FE4FA590B490BB248CEA5D
:1024E000E82E81E0F82ED12CC12C9FE0892E912C72
:1024F000C601B4010E941424812F511013C0860F0D
:102500009701402F672D0E94DB06CA0CDB1C84E07C
:10251000E80EF11C88EEE81681E0F80649F70E9403
:10252000C40E9ECF861BECCFE5EEF2E043812CE09B
:10253000421B08F440E021E0628181810C94FE118D
:10254000E5EEF2E043812CE0420F08F44FEF21E08A
:10255000628181810C94FE11E5EEF2E062812FEF41
:10256000621B08F460E021E0438181810C94FE113C
:10257000E5EEF2E062812FEF620F08F46FEF21E0E9
:10258000438181810C94FE11E5EEF2E0818121E02E
:10259000438162818C500C94FE11E5EEF2E0818162
:1025A00021E043816281845F0C94FE11E5EEF2E04C
:1025B00080818E7F808360817181828193810E947E
:1025C000E40A1092EB022FEF80E792E02150804066
:1025D0009040E1F700C000000C94C40E80E290E04F
:1025E00090931901809318018091A20181110EC06E
:1025F0000E94412381E08093A2012FEF83ED90E3BD
:10260000215080409040E1F700C0000064E670E097
:1026100080E40E9447239093190180931801892B2D
:1026200009F04EC064E670E080E00E94A32390931E
:10263000190180931801892B09F042C064E670E00B
:1026400080E00E94A3239093190180931801892BA5
:10265000B9F564E670E08FE30E94A323909319011B
:1026600080931801892B61F50E94F62364E670E0DF
:1026700080E40E9447239093190180931801892BCD
:10268000F9F464E670E08CE00E94A32390931901B2
:1026900080931801892BA1F464E670E080E00E9429
:1026A000A3239093190180931801892B49F464E6C0
:1026B00070E08FE30E94A323909319018093180187
:1026C0000E94F623809118010895CF93873050F52A
:1026D0008091180190911901C0E0892B71F464E692
:1026E00070E081E40E9447239093190180931801C0
:1026F000892B31F0C0E00E94F6238C2FCF910895F2
:1027000084E690E00E94D22397FF05C090931901C0
:1027100080931801EFCFC82FC09510921901109225
:102720001801E9CFCFB18FB1869586958C73C370B0
:102730008C2BC82FC095E1CF1F920F920FB60F922E
:1027400011242F933F934F935F936F937F938F93B6
:102750009F93AF93BF93CF93DF93EF93FF93D0916A
:10276000E900DF708091EC00C82FC17080FDC0E8E7
:102770001092E9008091F000877F8093F0007894B8
:102780000E94B70B1092E9008091F000886080935E
:10279000F000CD2BCF70C093E900FF91EF91DF9156
:1027A000CF91BF91AF919F918F917F916F915F91E9
:1027B0004F913F912F910F900FBE0F901F90189542
:1027C0001F920F920FB60F9211242F933F934F93A6
:1027D0005F936F937F938F939F93AF93BF93EF9389
:1027E000FF938091E10082FF09C08091E20082FFA7
:1027F00005C08091E1008B7F8093E1008091DA0039
:1028000080FF24C08091D80080FF20C08091DA0032
:102810008E7F8093DA008091D90080FF9BC080E199
:1028200089BD82E189BD09B400FEFDCF81E08093BE
:1028300021038091FC02811109C00E9428030E949B
:10284000F3038091E20084608093E2008091E100D4
:1028500080FF17C08091E20080FF13C08091E200EA
:102860008E7F8093E2008091E20080618093E2009D
:102870008091D80080628093D80019BC85E0809355
:1028800021038091E10084FF29C08091E20084FF50
:1028900025C080E189BD82E189BD89B5982F9170FD
:1028A00080FFFBCF8091D8008F7D8093D8008091EE
:1028B000E1008F7E8093E1008091E2008F7E809323
:1028C000E2008091E20081608093E2008091220327
:1028D000882309F445C084E0809321038091E100BE
:1028E00083FF27C08091E20083FF23C08091E10035
:1028F000877F8093E10082E080932103109222037E
:102900008091E1008E7F8093E1008091E2008E7FD4
:102910008093E2008091E20080618093E20042E0D7
:1029200060E080E00E94C1038091F00088608093A5
:10293000F000FF91EF91BF91AF919F918F917F91A7
:102940006F915F914F913F912F910F900FBE0F901C
:102950001F90189519BC109221031092FC0276CF9B
:102960008091E30087FD93E090932103B7CF7894A3
:102970001F921FB61F9211248F939F93AF93BF9303
:1029800080912B0390912C03A0912D03B0912E03E5
:102990000196A11DB11D80932B0390932C03A0934E
:1029A0002D03B0932E03BF91AF919F918F911F90F4
:1029B0001FBE1F9018952FB7F89480912B0390910C
:1029C0002C03A0912D03B0912E032FBF08950F93D8
:1029D0001F93CF93DF93C62FD42F022FFC01828148
:1029E0008823A1F0609331030E94DB14909330039D
:1029F00080932F03C77081E001C0880FCA95EAF762
:102A0000DF91CF911F910F910C94CD0580913103EF
:102A1000681343C020912F03309130034FB7F894CF
:102A200080912B0390912C03A0912D03B0912E0344
:102A30004FBF821B930B883C910578F510E21D0F68
:102A40006D17B9F080E2860F883040F4C77081E0DE
:102A500001C0880FCA95EAF70E94C205183048F4F1
:102A600081E09D2F977001C0880F9A95EAF70E9428
:102A7000CD05802F0E944D06802F0E941B06183026
:102A800098F4D77081E001C0880FDA95EAF7DF91FA
:102A9000CF911F910F910C94C205C77081E001C0C6
:102AA000880FCA95EAF7F3CFDF91CF911F910F916D
:102AB00008956091E502669570E04BE050E08AE091
:102AC00091E00E94D825892B19F481E08093EB02D4
:102AD0000E94DB149093E0028093DF0208959091AE
:102AE000E50290FF36C09170811129C092609093E9
:102AF000E502662351F06091E5027091E602809153
:102B0000E7029091E8020E94E40A6091E50266956E
:102B100070E04BE050E08AE091E00E94D825892BDC
:102B2000A9F01092EB0281E08093E20220E0409154
:102B3000E8026091E7028091E6020C94FE118B326C
:102B400010F09465D4CF880F982BD1CF0E945915DF
:102B5000EACF0895E5EEF2E080818160808360E055
:102B600086950C946F1561E00C946F15E5EEF2E01C
:102B700080818160808386950C94B3158091E502F5
:102B80008695815009F48AE261E00C946F1580917A
:102B9000E50286958F5F8B3208F081E061E00C944E
:102BA0006F159091E50290FF07C09695981720F059
:102BB000961710F40C94C7150C94B315CF92DF92AE
:102BC000EF92FF92CF93DF936B017C01C701AA279D
:102BD000BB27C0E10097A105B10519F4D701CB01CE
:102BE000C0E0492F5A2F6B2F7727411551056105FA
:102BF000710519F0C85FDB01CA01AC01BD01E4E059
:102C00007695679557954795EA95D1F74115510502
:102C10006105710519F0CC5FDB01CA01AC01BD0192
:102C200032E076956795579547953A95D1F74115D6
:102C300051056105710519F0CE5FDB01CA01B6953A
:102C4000A79597958795892B8A2B8B2B09F0CF5FBA
:102C50000E94B9090E94B6090E94B3090E94B009F6
:102C6000D0913702EFEFEC0FE73008F050C0F0E002
:102C7000E655F94D0C943C240E94C209D1115EC066
:102C80000E94AA1560E081E00E946F1520E045EFE8
:102C900065EF80E051C00E94BF09D1114FC00E9472
:102CA000AA1560E081E00E946F1520E04FEF6FEF02
:102CB0008AE442C00E94C2090E94BF09D1113EC0ED
:102CC00088E090E00E94ED256093E5027093E602B3
:102CD0008093E7029093E80260FF39C00E94B61526
:102CE0008091E50286950E94B31521E04091E802AB
:102CF0006091E7028091E6021FC00E94C2090E9413
:102D0000BC09DCCF0E94C2090E94BF09F8CFC130C4
:102D100009F4B4CFCC2321F0C23009F4BECFCECF1A
:102D2000D1110CC00E94AA1560E081E00E946F15CD
:102D300020E04FEF6FEF8EE00E94FE11C701B60159
:102D4000DF91CF91FF90EF90DF90CF9008950E9498
:102D5000D612F4CF0E94DE156093C8027093C902A8
:102D60008093CA029093CB020C9403060F931F9397
:102D700041E050E060E070E004C0440F551F661F62
:102D8000771F8A95D2F7CB01BA016095709580952F
:102D900090950091C8021091C9022091CA02309109
:102DA000CB0260237123822393231F910F910C94F4
:102DB000AA169091A802809589238093A802282FB3
:102DC000277071F4282F082E000C330B921713066E
:102DD00039F08595859585950E94B6161092A802C2
:102DE00008950F931F9341E050E060E070E004C04D
:102DF000440F551F661F771F8A95D2F78091C8022E
:102E00009091C902A091CA02B091CB028A019B01A4
:102E1000082B192B2A2B3B2BC901B8011F910F91AD
:102E20000C94AA164F925F926F927F928F929F920C
:102E3000AF92BF92CF92DF92EF92FF920F931F93C8
:102E4000CF93DF9300D000D00F92CDB7DEB77C01D7
:102E5000FC0183819481892B39F01081D180812FED
:102E60008D218F3F09F096C50F900F900F900F9016
:102E70000F90DF91CF911F910F91FF90EF90DF9016
:102E8000CF90BF90AF909F908F907F906F905F900A
:102E90004F9008950E944009082F682F89819A81D8
:102EA0000E948A05E12FF0E026E0D29EE00DF11DA0
:102EB000112434E5039FE00DF11D1124EE0FFF1FD7
:102EC000EF54FD4F059114910A328DE5180709F072
:102ED00088C0F70182818823C9F18091B30291E013
:102EE000980F9770887F953008F4892B8093B302F0
:102EF0008091B3028770FFEF8F9FC00111249595D9
:102F00008795959587959927909389008093880058
:102F100090938B0080938A0090938D0080938C0017
:102F20004091B3025091B4026091B5027091B60223
:102F30008FE090E00E940B266091C8027091C90258
:102F40008091CA029091CB020E94DE15F701928116
:102F5000992309F430C5109231030230FCE51F07B4
:102F600008F4D1C106312CE5120738F098012B5F27
:102F70003C452730310508F0C6C10E94D60A90931F
:102F8000C6028093C5020F303CE5130709F49CC1CB
:102F900008F016C108309CE5190709F47FC108F054
:102FA000EBC00430FCE51F0709F46CC108F0D1C088
:102FB00002303CE5130709F45DC103301C4509F4F8
:102FC0005DC16091C5021091C60284E090E00E944C
:102FD000F925612F81E290E00E94F9250E94A20B61
:102FE00065C00D322DE5120709F482C018F50B32C9
:102FF0008DE5180709F450C00C329DE5190709F456
:1030000043C0043F2CE5120709F494C050F5093D74
:103010008CE5180709F48AC00A3D9CE5190709F4F4
:1030200095C0083DECE51E0709F090CF26E241EE81
:1030300061EE26C00E32EDE51E0709F469C00F32BD
:10304000FDE51F07F1F6F7018281882379F10E94DF
:10305000B61581E00E94B31521E04FEF61E58EEDDA
:1030600054C0063FFCE51F0709F46CC008F466C0B5
:1030700027E245EE66EE073F3CE5130709F066CF11
:10308000C7010E94E71412C0F7018281882371F002
:1030900081E00E94B3150AC0F7018281882331F0D4
:1030A0008091370291E08927809337028091A802AE
:1030B000877009F4D9CEF7018281882309F4D4CE30
:1030C00082E00F900F900F900F900F90DF91CF91B3
:1030D0001F910F91FF90EF90DF90CF90BF90AF9036
:1030E0009F908F907F906F905F904F900C94D91627
:1030F000F70182818823D1F20E94B61581E00E94F7
:10310000B31521E04FEF6DE58CE80E94FE11CECFA4
:10311000F7018281882351F20E94B61581E00E9456
:10312000B31521E04FEF6FEF8FE1EFCF27E245EED0
:1031300065EEA6CF26E241EE60EEA2CF27E245EE95
:1031400064EE9ECF26E241EE62EE9ACF28E241E0A5
:10315000EFCF8091C502806106309CE5190709F424
:1031600047C08091C502886007301C4508F440C004
:103170008091C50280623CC00B30FCE51F0709F45A
:103180009BC068F409303CE5130709F48BC00A3092
:103190001C4509F016CF8091C5028C6029C0809132
:1031A000C5028B7F0D309CE5190711F18091C50296
:1031B0008D7F0E301C45E0F08091C502877F18C0DE
:1031C0000B3FFCE51F0709F461C060F502313CE5E7
:1031D000130709F481C078F400319CE5190709F45C
:1031E00077C08091C5028F7B01311C4509F0E9CE83
:1031F0008093C502E6CE0431FCE51F0709F47AC0CE
:1032000008F470C005311C4509F0DBCE8091C50281
:1032100082FB992790F921E0922790FB82F990FB9D
:1032200083F9E6CF0E3F8CE5180709F449C070F426
:103230000C3FECE51E0771F18091C6028E7F0D3FB9
:103240001C4509F0BECE8093C602BBCE01152DE50C
:10325000120709F44BC060F101301D4509F0B1CEF1
:103260008091C602982F909591708E7F892B90FB4C
:1032700081F9E9CF8091C5028160BACF8091C50202
:103280008260B6CF8091C5028460B2CF8091C602C1
:103290008160D9CF8091C6028260D5CF8091C5026E
:1032A0008064A6CF0E94A20B8091C5028068A0CF47
:1032B0008091C6028360C7CF8091C5028E7F98CF70
:1032C0008091C6028D7FBFCF8091C5028F7E90CF47
:1032D0008091C5028F7D8CCF0E94A20B8091C50288
:1032E0008F7786CF8091C502837F82CF8091C6027F
:1032F0008C7FA9CF0E94A20B9091C502892F97FBCA
:1033000087F9805875CF8091AB020631ECE51E0736
:1033100009F05FC38A7A91E009F490E09093380253
:1033200069E2811165E382E891E00E94E1040E9474
:103330001C05BCCE8091E50280FF03C00E94D6121E
:10334000B5CE0E94B615B2CE4EEB55E167EC75E1F5
:103350000E94C706ABCE47EC55E16EEB75E1F8CFA6
:1033600044EC52E16DEC72E1F3CF4DEC52E164ECD0
:1033700072E1EECF4CEA52E168EB72E1E9CF48EB43
:1033800052E16CEA72E1E4CF44E952E160EA72E1B1
:10339000DFCF40EA52E164E972E1DACF46EF5AE06A
:1033A00067E07BE0D5CF47E05BE066EF7AE0D0CF27
:1033B00065E082E00E94D11579CE68E086E0FACF20
:1033C0006EE089E0F7CF64E18FE0F4CF67E185E15B
:1033D000F1CF88E15ECE62E289E1ECCF83E259CEA3
:1033E0000115FCE51F0709F447C00F3D1C4509F412
:1033F00080C0F70100811181992309F47DC0C801C3
:103400000E944009D82E682FC8010E948A05B80181
:103410008D2D0E94B5078C01882EF701A580A294FE
:103420004FE0A422D280D1101092AA028091A8026B
:10343000877099F0DD2089F0812F807F803421F022
:1034400080E2800F883048F082E00E94D916809197
:10345000A8028770CC24C3948111C12CB12EB294E0
:103460003FE0B322FBE0FB1508F480C0EB2DF0E059
:10347000EF54F94D0C943C240E94A20B3FEF84E3DF
:103480009CE0315080409040E1F700C00000F8948B
:1034900081E08093E00080E28093D8001092C90020
:1034A000EFE1FEE43197F1F700C000001DBA109281
:1034B00068001CBC10BE1FBA10927A0010926E00F9
:1034C00010926F0010927100109272001092C90059
:1034D0001092BC0014B817B81AB81DB810BA1092E0
:1034E000BC0015B818B81BB81EB811BA0C94003F30
:1034F000DDCD0E94270BDACDC8010E946105D82ED0
:1035000086CF212F2F70A22E107F19F0A29420EFCA
:10351000A222DD20C9F0AA2069F080E2800F883065
:1035200010F081100BC08091AB02A82AA092AB02D0
:103530000E941C05802F0E944D0618C08091AA028F
:10354000A82AA092AA02F4CF802F0E941B06AA20CC
:1035500069F0A094005E083010F0811046C08091A0
:10356000AB02A822A092AB020E941C052B2D285072
:10357000330B2430310510F40E94BB06CC20A9F097
:103580008091A80280FD11C0F70112828595859572
:1035900085950E94F116C7010E9412178091A8021A
:1035A0008595859585950E94B61685E0F701DE0123
:1035B000119601900D928A95E1F789819A810E9476
:1035C00061059A81E981F0E026E0929FE00DF11D0E
:1035D000112434E5839FE00DF11D1124EE0FFF1F30
:1035E000EF54FD4F859194913FCC8091AA02A8227F
:1035F000A092AA02B9CF312F3F70932E107F1032C4
:1036000019F0929490EF9922882041F081E0881679
:1036100031F1DD2079F1AA2041F18CCFDD2091F04C
:103620009091AC02892D892BA11003C00E94CD0579
:103630009DCFE1E0AE12FACF981709F497CF8093AF
:10364000AC0294CFA11006C00E941605892D0E94DD
:10365000C2058CCFF1E0AF1609F488CFF5CFDD209D
:1036600031F021E02A1508F481CF892DDFCFA11098
:103670007DCFECCFAA2051F339E3831284C18FEFC1
:1036800097EEE3E081509040E040E1F700C0000099
:103690007AC1812F86958695837061F0813009F01B
:1036A00065CFC8019370D11002C090E080E00E9405
:1036B000D7055CCFC8019370D11002C090E080E0C4
:1036C0000E94ED0553CF812F837009F066C0D110A1
:1036D0004DCF802F829586958770880F880F602F39
:1036E0006F70462E512C712C612C082E04C0440C96
:1036F000551C661C771C0A94D2F740E050E0BA01D2
:1037000004FF0FC04FE050E060E070E004C0440FE1
:10371000551F661F771F8A95D2F740955095609583
:103720007095812F869586958370823019F1D8F433
:103730000091AD021091AE022091AF023091B00223
:10374000813069F04429552966297729CB01BA01CE
:1037500060237123822393230E94110607CF402AFE
:10376000512A622A732ACB01BA0164297529862954
:103770009729F2CF44295529662977290091AD026E
:103780001091AE022091AF023091B002CB01BA018C
:103790006027712782279327DFCF8695DD2011F0E0
:1037A000812F8170882309F4E1CE802F8295869540
:1037B0008770880F880F602F6F70462E512C712CE8
:1037C000612C082E04C0440C551C661C771C0A94FE
:1037D000D2F740E050E0BA0104FF0FC04FE050E0E4
:1037E00060E070E004C0440F551F661F771F8A9584
:1037F000D2F74095509560957095812F8695869566
:103800008370823019F1D8F40091C8021091C90276
:103810002091CA023091CB02813069F044295529A8
:1038200066297729CB01BA01602371238223932370
:103830000E94AA169BCE402A512A622A732ACB01E3
:10384000BA016429752986299729F2CF4429552977
:10385000662977290091C8021091C9022091CA02F5
:103860003091CB02CB01BA016027712782279327C1
:10387000DFCF1F70DD2029F0812F0E94F116802FED
:10388000D5CE802F0E94C205812F0E94B6166ECE23
:10389000802FF2EF8F1609F44EC0F81578F020EF64
:1038A000821619F131EF831609F43DC0DD2009F4C9
:1038B00065C0A1103FCE812F8F713AC093EF89165A
:1038C00009F43EC0E4EF8E12F1CFDD2009F44BC0C5
:1038D0001F71812F0E94F11628E0129FC001112450
:1038E00083608093A802812F23C0DD20B9F0A1104E
:1038F0003DCE1F7161E070E080E090E004C0660F93
:10390000771F881F991F1A95D2F70091C80210914E
:10391000C9022091CA023091CB02A6CFF1E0FA157C
:1039200008F424CEE6CF812F8F71DD2009F4ADCFCE
:103930000E94F1161BCE812F8F71DD20C9F3A5CF18
:1039400060E070E0CB01DD2009F472CF1F7161E00F
:1039500070E080E090E004C0660F771F881F991F19
:103960001A95D2F765CF81E00E94D91631E03A1559
:1039700008F0FCCD82E00E94D916F8CDAA2039F0DB
:10398000893309F47CCE802F0E941B06EFCD812F56
:103990008F717BCF85E0DE01119601900D928A95A3
:1039A000E1F7F701228189819A81211173CA0E946E
:1039B0006105082F77CA06311C4509F01ACD8091A0
:1039C000380269E2811165E382E891E00E94B70460
:1039D000AECC8272F801E35CFC45E431F10508F0FD
:1039E000FFCCE354F94D0C943C241F93CF93DF9309
:1039F00080913E02807FA9F480913B02882389F068
:103A000080917002D0913F026091390270913A0228
:103A1000A0913C02B0913D02C62FC72316E0D813F7
:103A200004C0DF91CF911F91089590E0109711F09D
:103A3000CF3F19F401968770F2CF189F9001199F1C
:103A4000300D1124F901E05CFD4F41814713F2CFA5
:103A500040814613EFCF42814111ECCF4381548125
:103A60004A1B5B0B483C510528F780913E028F7042
:103A7000806180933E02F901EB5BFD4F80818F7086
:103A80008061808389E392E00E941217DF91CF91D9
:103A90001F910C94B805AF92BF92CF92DF92EF9234
:103AA000FF920F931F93CF93DF93CDB7DEB761974C
:103AB0000FB6F894DEBF0FBECDBF8C0185E0F801D4
:103AC000DE011D9601900D928A95E1F7F801808143
:103AD0009181E28029E3A22E22E0B22E60913C0285
:103AE00070913D026115710509F43EC130913902B2
:103AF00040913A02232F24232F3F09F435C1C3807C
:103B0000D480F0903B02F601E61BF70BFF2009F48E
:103B1000FBC020913E02522F507FE83CF10508F097
:103B2000BBC0511178C0FE2C491321C038131FC0EF
:103B3000E1101DC02F70206120933E02C5010E943C
:103B4000121780913E02F80185838F2D61960FB682
:103B5000F894DEBF0FBECDBFDF91CF911F910F91C3
:103B6000FF90EF90DF90CF90BF90AF900895CD2859
:103B700029F0282F29232F3F09F014C120E0F22F2C
:103B8000F170DF2E20FF3DC02091700240913F0276
:103B900056E0241315C08D879E878D859E850E94D3
:103BA0008209292F22952F702230F8F0243020F539
:103BB0009F70F9F0F8019581907FD9F4D12C1FC046
:103BC00030E0529FF001539FF00D1124E05CFD4F57
:103BD0006181961306C06081861303C06281E6127C
:103BE00010C02F5F3F4F2770D4CF9F7011F08823F4
:103BF00029F3805E883010F3C8010E941217FD2C53
:103C0000A4CFEE2009F4A1CF80913E028160809381
:103C10003E02F12C9ACF491312C0381310C0E110A4
:103C20000EC0F8012583C8010E94121786E0F80132
:103C3000A9E3B2E001900D928A95E1F786CF8D87D6
:103C40009E878D859E850E948C09882309F1EE2030
:103C5000F9F080913E02803270F02091390230916B
:103C60003A0238872F831986DB86CA868C87CE0175
:103C700007960E94121786E0F801A9E3B2E00190CE
:103C80000D928A95E1F70E94F51CFF24F3945DCF15
:103C9000C8010E941217F9CF51110AC089E392E0BE
:103CA0000E94121786E0F50111928A95E9F7B1CFCB
:103CB00049130FC038130DC0E1100BC0F801258364
:103CC000C8010E94121786E0F50111928A95E9F762
:103CD0003CCF8D879E878D859E850E948C09882389
:103CE000B9F2EE20A9F280913E02803220F22091BA
:103CF000390230913A023A8329831B82DD82CC82D9
:103D00008E83CE010196B5CFE83CF105E0F6FE2C9E
:103D1000EE2009F4BDCF491316C0381314C08091AA
:103D20003E0280FD83CF982F907F09F47FCFF8016A
:103D30008583903F09F477CF982F907F905F8F70A5
:103D4000892B858370CF8D879E878D859E850E9468
:103D50008C09811190CF80913E02816080933E0258
:103D6000C8010E941217F1CEEE2009F491CF8D8781
:103D70009E878D859E850E948C09F82E882309F4E4
:103D800087CF86E0F801A9E3B2E001900D928A9511
:103D9000E1F78091390290913A020E9482090E94D3
:103DA000F51CD3CE21E02E25EACE1F93CF93DF93CF
:103DB000CDB7DEB767970FB6F894DEBF0FBECDBFA5
:103DC0004B8B5C8B6D8B7E8B8F8B1A8A198A85E06F
:103DD000FE017396DE011D9601900D928A95E1F722
:103DE00086E0FE013D96DE01179601900D928A95C0
:103DF000E1F7CE0107960E944B1D811112C086E0AB
:103E0000FE013796DE01119601900D928A95E1F739
:103E10008A859B85892B29F08F81988589238F3FFF
:103E2000B1F516E08091700290913F0289131DC098
:103E300067960FB6F894DEBF0FBECDBFDF91CF916E
:103E40001F91089596E0929FD001939FB00D112489
:103E5000A05CBD4FFE01319601900D929A95E1F75D
:103E600080933F020E94B805DCCF819FC0011124DE
:103E7000805C9D4F0E944B1D8823D1F2809170027F
:103E800090E001968770992780937002CBCF2091A4
:103E90003F0230E0C9010196877099274091700276
:103EA0004817190679F60E94A20B10923F02109251
:103EB000700286E0E9E3F2E0DF011D928A95E9F7FE
:103EC000B0CF8F929F92BF92CF92DF92EF92FF92EC
:103ED0000F931F93CF93DF93809118019091190155
:103EE000892B91F08091A3018F5F8093A3018111B1
:103EF0000BC00E94EE1290E090931901809318017C
:103F0000892B11F40E945C0A27EB822E22E0922E6C
:103F1000740110E000E097E0C92EC00E802F0E94CF
:103F2000700E8C2D0E94700E802F0E946513E70189
:103F300099917E01D12C891729F0FE013197808358
:103F4000DD24D3948C2D0E946513F7019681891787
:103F500009F47AC0868381E08D29182B0E94C50957
:103F60000F5F0730C1F60E94DB146091A5017091CC
:103F7000A6019093A6018093A5012091A40130E0B1
:103F8000261B370B820F931F6BEF70E00E941424E7
:103F9000E82E392F082F8093A401F090A801FF206C
:103FA00009F45EC01092A801E091B102F091B20252
:103FB000AF01425F5F4F20E08BEFB82E6BEF70E0F8
:103FC000A191AB3F99F0CA2ED12C8E2D932F0A17B9
:103FD000E8F18C199D09092E000CAA0BBB0B4E971A
:103FE000A105B105C8F1DF011197BC924E175F071B
:103FF00039F72093A801111102C0211133C010928A
:10400000A701A091B102B091B2029091A801E1ED97
:10401000F2E080E03191E40129914E01321751F034
:104020003C913B3FD9F40C93AF0141505109EA0157
:10403000288391E01196D2E0EF3DFD0759F7909368
:10404000A8018093A70112C080E086CFDB01AC19E4
:10405000BD098A0F9B1FBFCF2F2DC8CF81E0EACFAC
:104060001111CDCF8091A7018111C9CF812FDF918F
:10407000CF911F910F91FF90EF90DF90CF90BF9065
:104080009F908F900895CDB7DEB72A970FB6F8941A
:10409000DEBF0FBECDBF84B7877F84BF0FB6F89455
:1040A000A895809160008861809360001092600004
:1040B0000FBE80E890E00FB6F89480936100909373
:1040C00061000FBE85B7806885BF85B7806885BFF2
:1040D0000E9428030E94F3038091E2008460809391
:1040E000E2007894809121038823A1F01091E900E7
:1040F0001F709091EC00892F817090FD80E8182B43
:104100001092E9008091E80083FD0E94B70B1F70B8
:104110001093E90082E084BD93E095BD9AEF97BDCE
:1041200080936E000E94EE1290E0909319018093AC
:1041300018010E94C5090E94D409E7EBF2E085EC62
:1041400092E0A1EDB2E011921D928E179F07D9F770
:104150008EE090E00E94AD248093B1029093B20271
:10416000FC010E962BEF21938E179F07E1F790E04D
:1041700080E00E94F3258F3E9E4F11F00E94270B96
:1041800089EA8093800089E08093810024982C98AC
:104190003F988AB18F7C8AB96E98479A8BB18063B9
:1041A0008BB9769A8FE090E00E94ED256093B30280
:1041B0007093B4028093B5029093B60267708FEF4C
:1041C000689FB00111247595679575956795772758
:1041D000709389006093880070938B0060938A00CD
:1041E00070938D0060938C000E945C0A90E080E0E8
:1041F0000E94F3258F3E9E4F11F00E94270B82E014
:1042000090E00E94E5258093ED020E94D60A9093EB
:10421000C6028093C50283E090E00E94E525682FE6
:1042200070E090E080E00E9411066091C8027091F9
:10423000C9028091CA029091CB020E94DE15809142
:10424000C702811136C090E080E00E94F3258F3EC6
:104250009E4F21F00E94270B0E94180B88E090E0EF
:104260000E94ED256093E5027093E6028093E702D9
:104270009093E8026E7F71F40E94180B88E090E042
:104280000E94ED256093E5027093E6028093E702B9
:104290009093E8020E94CC061092EB028091E50216
:1042A00080FF04C060E086950E946F1581E08093D6
:1042B000C7026091C8027091C9028091CA029091B0
:1042C000CB020E94DE158AE191E09093CD028093AB
:1042D000CC02A8E1EA2EF12CB0E4CB2E81ED92E0E5
:1042E0001EE0D12ED80E80912103BB24B39400E1AF
:1042F00012E1853009F4EDC00E94611FAEEEB2E01C
:10430000E1EDF2E010E000E0302F81912D912817CF
:1043100009F4F7C090E0BB24B3942827422F4B2127
:1043200009F4EAC099833A838B2191E009F490E083
:104330009B830E94DB148160782F9D838C8349814D
:104340005A816B818D810E94D51EF801E251FD4F8B
:104350008081B826B0828091EB02882309F44CC09A
:104360008091EA02E091E502E695E81BE093E10224
:10437000823009F0DDC0F0E0E654FB4FE4910E2FEF
:1043800010E0FAEDAF2EF1E1BF2E8091E20288231A
:1043900089F01092E2020E94DB149801209530957A
:1043A000820F931F9093E0028093DF021092E40249
:1043B0001092E3022091DF023091E0024FB7F894AF
:1043C00080912B0390912C03A0912D03B0912E038B
:1043D0004FBF821B930B8017910770F0E091DF02B3
:1043E000F091E0020E0F1F1F1093E0020093DF0216
:1043F0008FED92E0F50109950E94BB069091EC02C9
:10440000891709F470CF0E94BB068093EC026BCF32
:1044100080912103843009F43DC01092CE020FB682
:10442000F894A895E09260000FBEC09260001092D0
:10443000EB028091D002811116C0B092D00280911F
:10444000E502982F91709093CF028E7F8093E502C2
:104450002FEF80E792E0215080409040E1F700C0CC
:1044600000000E94C40E83B7817F846083BF83B73E
:10447000816083BF7894889583B78E7F83BF0FB6A2
:10448000F894A895809160008861809360001092F4
:1044900060000FBE809120038823D9F00E94EE12A5
:1044A00090E090931901809318010E94C5090E9421
:1044B000D409E1EDF2E0119222E0EF3DF207D9F7E5
:1044C0000E94611FE1EDF2E0819181119DC0DE1239
:1044D000FBCF80912103853009F49ACF0E94A20B73
:1044E0000E94BB061092D0028091CF0281110E94DF
:1044F000AA150E94591500CF9F5FBB0C963009F09A
:104500000DCF0F5F1F4F0E30110509F0FDCE8FEF5D
:104510008E838F8318860E94DB148160782F9A87A0
:1045200089874E815F8168858A850E94D51E13CF59
:10453000863059F4F0E0E954FB4FE4910E2F10E07F
:10454000EEEEAE2EE1E1BE2E20CF893061F4E6958D
:10455000F0E0EC54FB4FE4910E2F10E072ECA72E2C
:104560007FE0B72E12CF8F3061F4E695F0E0EF5484
:10457000FB4FE4910E2F10E06CEEA62E6FE0B62EEE
:1045800004CF853159F4F0E0E255FB4FE4910E2F52
:1045900010E05BE5A52E50E1B52EF7CE08E210E065
:1045A0002BEAA22E20E1B22E883109F4EECE83321E
:1045B00049F4ECEAF4E0059114914FE7A42E41E1AF
:1045C000B42EE3CE04EF11E094E3A92E91E1B92ECD
:1045D000843209F4DACE853281F48E2F63E00E94B2
:1045E000FA23E92FF0E0E755FB4FE4910E2F10E09E
:1045F00039E3A32E3FE0B32EC8CE00ED17E082EBE7
:10460000A82E84E0B82EC1CE09BD19BD09B400FEA4
:10461000FDCF8091D8008F7D8093D8008091E000FD
:1046200082608093E0008091E00081FDFCCF0E94D9
:10463000A20B4FCF1F921FB61F9211248F939F93EF
:10464000AF93BF938091CE02811113C080912B0351
:1046500090912C03A0912D03B0912E034196A11DA2
:10466000B11D80932B0390932C03A0932D03B09343
:104670002E03BF91AF919F918F911F901FBE1F90EE
:1046800018951092B9008CE08093B8000895EF92CD
:10469000FF920F931F93CF93DF93182FEB0110928C
:1046A000BC0084EA8093BC000E94DB147C018091F2
:1046B000BC0087FF27C08091B900887F883029F02F
:1046C0008091B900887F8031D9F51093BB0084E8D0
:1046D0008093BC000E94DB148C018091BC0087FF9A
:1046E00024C02091B900287F90E080E02831B1F00B
:1046F00081E090E0203411F490E080E09195819584
:1047000091090CC0CF3FDC0791F20E94DB148E1997
:104710009F098C179D0758F28EEF9FEFDF91CF9185
:104720001F910F91FF90EF900895CF3FDC07A9F202
:104730000E94DB14801B910B8C179D0770F2ECCF4D
:104740008FEF9FEFEBCF0F931F93CF93DF93EB018F
:104750008093BB0084E88093BC000E94DB148C0132
:104760008091BC0087FF11C02091B900287F81E0B3
:1047700090E0283211F490E080E0919581959109C4
:10478000DF91CF911F910F910895CF3FDC0741F347
:104790000E94DB14801B910B8C179D0708F38EEF92
:1047A0009FEFEECF0F931F93CF93DF93EC0184E83D
:1047B0008093BC000E94DB148C018091BC0087FFB9
:1047C00008C08091BB0090E0DF91CF911F910F91C5
:1047D0000895CF3FDC0789F30E94DB14801B910B07
:1047E0008C179D0750F38EEF9FEFEECF84E98093F7
:1047F000BC000895991B79E004C0991F961708F032
:10480000961B881F7A95C9F78095089587FB082E17
:10481000062687FD819567FD61950E94FA230EF4B7
:10482000919507FC81950895AA1BBB1B51E107C018
:10483000AA1FBB1FA617B70710F0A61BB70B881F30
:10484000991F5A95A9F780959095BC01CD010895BF
:1048500097FB072E16F4009407D077FD09D00E942D
:10486000142407FC05D03EF4909581959F4F089540
:10487000709561957F4F0895EE0FFF1F0590F4919D
:10488000E02D09940E948126332312F48A1B9B0B8E
:104890000C944C240E948126B7FF0895821B930B31
:1048A00008958F929F92AF92BF92CF92DF92EF9234
:1048B000FF92CF93DF93EC01688179818A819B819C
:1048C000611571058105910521F464E279ED8BE5AF
:1048D00097E02DE133EF41E050E00E942D264901A1
:1048E0005A019B01AC01A7EAB1E40E944C266B017E
:1048F0007C01ACEEB4EFA50194010E945A26DC01C4
:10490000CB018C0D9D1DAE1DBF1DB7FF03C00197D0
:10491000A109B04888839983AA83BB839F77DF91DD
:10492000CF91FF90EF90DF90CF90BF90AF909F908E
:104930008F9008950E945124089580E091E00E9494
:1049400051240895B0E0A0E080930001909301010C
:10495000A0930201B093030108950F931F93CF9387
:10496000DF938230910510F482E090E0E09134030F
:10497000F091350330E020E0B0E0A0E0309799F40A
:104980002115310509F447C0281B390B24303105A6
:10499000C0F58A819B816115710571F1FB019383DB
:1049A0008283FE0111C04081518102811381481729
:1049B0005907F8F04817590799F4109761F01296C3
:1049C0000C93129713961C933296CF01DF91CF91DF
:1049D0001F910F9108950093340310933503F4CF82
:1049E0002115310519F04217530718F49A01BD013A
:1049F000EF01DF01F801C2CF9093350380933403B8
:104A0000D0CFFE01E20FF31F819391932250310921
:104A100039832883DACF2091320330913303232B5B
:104A200041F4209106013091070130933303209324
:104A3000320320910401309105012115310541F423
:104A40002DB73EB74091080150910901241B350B49
:104A500040913203509133034217530708F0B5CF0A
:104A6000241B350B2817390708F4AFCFBC016E5F44
:104A70007F4F2617370708F4A8CF640F751F709370
:104A8000330360933203FA01819391939ECFCF93C6
:104A9000DF930097E9F0FC01329713821282C091F4
:104AA0003403D0913503DE0130E020E02097A1F4FB
:104AB00020813181820F931F209132033091330383
:104AC0002817390709F067C0F0933303E0933203E6
:104AD000DF91CF910895DA01AE17BF0708F040C00B
:104AE00012964D915C9113979D014115510599F7CF
:104AF000D9011396FC93EE9312974D915D91A40FFB
:104B0000B51FEA17FB0779F4808191810296840F23
:104B1000951FD90111969C938E9382819381139650
:104B20009C938E931297B0E0A0E08A819B810097BE
:104B3000B9F5FE0181919191E80FF91F809132033F
:104B4000909133038E179F0719F6109761F5109215
:104B5000350310923403D0933303C0933203B8CF9C
:104B6000B383A28340815181840F951FA817B90791
:104B700071F44E5F5F4F8D919C911197480F591FB3
:104B80005183408312968D919C919383828321154A
:104B9000310509F0ADCFF0933503E093340398CF9E
:104BA000DE01EC01C2CF13961C921E921297D3CF56
:104BB000FC014150504030F001900616D1F731977A
:104BC000CF010895882799270895F999FECF92BDBE
:104BD00081BDF89A992780B50895A6E1B0E044E038
:104BE00050E00C941F26A8E1B0E042E050E00C94A5
:104BF0001F26262FF999FECF92BD81BDF89A019705
:104C000000B4021639F01FBA20BD0FB6F894FA9A14
:104C1000F99A0FBE08950396272F0E94FA250E9445
:104C2000F925252F0E94FA25242F0C94FA250196A8
:104C3000272F0E94FA250C94F925DC01CB01FC01F9
:104C4000F999FECF06C0F2BDE1BDF89A319600B4E5
:104C50000D9241505040B8F70895052E97FB1EF471
:104C600000940E94442657FD07D00E945F2607FC4F
:104C700003D04EF40C9444265095409530952195E0
:104C80003F4F4F4F5F4F0895909580957095619578
:104C90007F4F8F4F9F4F08950E948126A59F900DB3
:104CA000B49F900DA49F800D911D11240895B7FF0E
:104CB0000C944C260E944C26821B930B0895A1E273
:104CC0001A2EAA1BBB1BFD010DC0AA1FBB1FEE1F86
:104CD000FF1FA217B307E407F50720F0A21BB30BD1
:104CE000E40BF50B661F771F881F991F1A9469F74D
:104CF00060957095809590959B01AC01BD01CF01A9
:104D00000895A29FB001B39FC001A39F700D811DA4
:104D10001124911DB29F700D811D1124911D0895C4
:104D2000F894FFCF9B099B09A409A409A609A4092B
:104D3000A409A4099B099B09AB09A409A409AB090F
:104D40009A0CC20C580EC20C580EF50C160D580ECB
:104D5000130E200E3C164B167F165A167D1684161F
:104D60008216811A811AFB1AFB1A491BB61AB61A47
:104D7000B61A631B391C481C481C9A19A419AB1994
:104D8000B019B519BA19BF19C419C919CE19D3194F
:104D90004818D819DD19E019E319E619E919EB19D2
:024DA000EE190A
:104DA2000100000000003603200001191A1B1C1D1F
:104DB2001E1F2021220102012000B4041C0AB30498
:104DC200180A140A01000102020202060606090973
:104DD200090909090F0F0F0F0F0F151515181919CA
:104DE20019191919191919192324252525252525D4
:104DF200818283E200E900EA00B500B600B700CD87
:104E0200008301CC008A0192019401210223022431
:104E1200022502260227022A02B300B4006F0070A4
:024E220000008E
:00000001FF
