:100000000C947E020C949B020C949B020C949B0219
:100010000C949B020C949B020C949B020C949B02EC
:100020000C949B020C949B020C94C1160C947D16AC
:100030000C9489270C949B020C949B020C949B02B9
:100040000C949B020C949B020C949B020C949B02BC
:100050000C949B020C949E170C949B020C949B0294
:100060000C949B020C949B020C949B020C949B029C
:100070000C949B020C949B020C949B020C949B028C
:100080000C949B020C949B020C949B020C949B027C
:100090000C949B020C949B020C949B020C949B026C
:1000A0000C949B020C949B020C949B020001010196
:1000B0000101010101010202020202020202020325
:1000C00003030303030303040404040404040505F5
:1000D00005050506060606060707070707080808B8
:1000E00008090909090A0A0A0B0B0B0C0C0C0D0D67
:1000F0000D0E0E0E0F0F0F101011111112121313FF
:100100001414151516161717181819191A1A1B1B77
:100110001C1D1D1E1E1F20202122222324242526D3
:1001200026272829292A2B2C2D2D2E2F303132320B
:10013000333435363738393A3B3C3D3E3F40414217
:10014000434445464748494A4C4D4E4F50515354FD
:10015000555658595A5B5D5E5F61626465666869B1
:100160006B6C6D6F7072737577787A7B7D7E808231
:10017000838587888A8C8E8F91939596989A9C9E7A
:10018000A0A2A3A5A7A9ABADAFB1B3B5B7BABCBE8A
:10019000C0C2C4C6C9CBCDCFD1D4D6D8DBDDDFE257
:1001A000E4E7E9EBEEF0F3F5F8FAFDFF35002A009D
:1001B0002B00E100E00000001E00140004001D0000
:1001C00002514C001F001A0016001B0001512C00A8
:1001D0002000080007000600E3002A0021001500A7
:1001E00009001900E2004900220017000A0005007A
:1001F000000047002900390000002F0000004600E1
:10020000230031000000300000004A0024001C00E0
:100210000B00110000004D00250018000D0010001B
:10022000E6004B0026000C000E00360050002800AF
:10023000270012000F00370051002C002D00130082
:100240003300380052004E002E002A003400E50032
:100250004F0000000100010001000100010000004A
:100260000100010001000100010001000100010086
:100270000100010001000100010001000100010076
:100280000100010001000100010001000100010066
:100290000100010001000100000001000100010057
:1002A0000000010000000100010001000000010049
:1002B0000000010001000100010001000000010038
:1002C00053005F005C0059006200010054006000B0
:1002D0005D005A0062000100550061005E005B0095
:1002E00063000100560057005700580058000100F5
:1002F00001000100010001000100000029000100CF
:1003000001000100010000003A0068000100010046
:1003100001002E5D3B006900010001000100C95C85
:100320003C006A0026022F000100CA5C3D006B0001
:100330002702300001002D5D3E006C0035003502C3
:100340000000C35C3F006D000000010000002C5D58
:1003500040006E00000001000000C25C41006F0020
:100360000100010000002B5D42007000010001004F
:100370000100010043007100010001003700C55C6D
:1003800044007200010001000100C65C45007300DA
:100390000100010001000100010001000100010055
:1003A0000100000005010980A101850319012AB798
:1003B00000150126B700950175108100C0050C09D4
:1003C00001A101850419012AA002150126A00295A8
:1003D0000175108100C005010906A1018505050709
:1003E00019E029E715002501950875018102050727
:1003F000190029EF1500250195F075018102050806
:100400001901290595057501910295017503910161
:10041000C005010906A101050719E029E715002516
:10042000019508750181029501750881010507197B
:100430000029FF150026FF009506750881000508B4
:100440001901290595057501910295017503910121
:10045000C009023B00020100A0FA090400000103E8
:10046000010100092111010001224000070581035B
:1004700008000A090401000103000000092111011C
:100480000001226D000705820320000A12011001FD
:1004900000000008973276490100010203010403BD
:1004A0003000000020034500720067006F00440028
:1004B0006F007800200045005A00200047006C00C3
:1004C0006F007700000030035A0053004100200005
:1004D00054006500630068006E006F006C006F00E0
:1004E0006700790020004C0061006200730020006A
:1004F00049006E00630000000403090411241FBEBC
:10050000CFEFDAE0DEBFCDBF26E0A6EAB3E001C060
:100510001D92AF33B207E1F713E0A0E0B1E0E2ECE7
:10052000F6E502C005900D92A63AB107D9F70E94F0
:10053000AF250C94002B0C940000E8EDF0E08081D6
:100540008E7F80831092E2001092DA001092E10018
:10055000A0EEB0E08C9181608C9380818F77808356
:1005600019BCA7EDB0E08C918E7F8C9380818F7E3B
:1005700080831092020608952091E4003091E500F6
:1005800095E6A9012091EC00822F817020FF06C022
:100590008091E80080FF06C080E008952091E80087
:1005A00022FD1AC080912806882389F0853089F0C1
:1005B0008091EB0085FD0FC02091E4003091E500B3
:1005C00042175307F9F29150E1F684E0089582E072
:1005D000089583E0089581E00895EF92FF920F93CC
:1005E0001F93CF937C018B010E94BC02C82F811105
:1005F00017C08091E80085FD0BC08091E8008E77E0
:100600008093E8000E94BC02882399F3C82F08C099
:10061000F70181917F018093F1000150110949F7A1
:100620008C2FCF911F910F91FF90EF9008958091A3
:100630002A0687FF13C08091E80082FF06C08091E0
:10064000E8008B778093E80004C080912806811130
:10065000F2CF0895809128068823D9F38091E8008D
:1006600080FFF8CF8091E8008E77ECCF982F9093A1
:10067000E900242F762F50E0891731F07091EC00BB
:100680002091ED005091F00021FD07C09F5F973051
:1006900071F78093E90081E008953091EB003E7F8F
:1006A0003093EB003091ED003D7F3093ED003091C1
:1006B000EB0031603093EB007093EC002093ED0081
:1006C0005093F0002091EE0027FDE0CF80E00895E8
:1006D000CF92DF92EF92FF920F931F93CF93DF930E
:1006E000C8EDD0E088818F7E8883E7EDF0E08081DF
:1006F0008160808384E082BF81E0809302068881EC
:100700008E7F888302EE10E0F80110821092DA00EA
:1007100081EEC82ED12CF601108288818F778883D4
:1007200088818068888388818F7D888319BC109236
:10073000280610922906109227061092260690EE9F
:10074000E92EF12CF70180818B7F80838881816085
:10075000888342E060E080E00E943603F6018081F9
:100760008E7F8083F80180818160808380818860B2
:100770008083F70180818E7F808388818061888378
:10078000DF91CF911F910F91FF90EF90DF90CF906D
:100790000895FC01809130069091310686179707E5
:1007A000A0F06115710529F49091E8009E7790936F
:1007B000E80090E06115710551F4911108C0809135
:1007C000E80082FF34C080E00895BC01F2CF809140
:1007D00028068823C1F18530C1F18091E80083FDAE
:1007E00030C08091E80082FDEACF8091E80080FF70
:1007F000E1CF8091F3002091F200382F611571054F
:1008000019F02830310558F091E02830310509F011
:1008100090E02091E8002E772093E800CBCF8191E3
:100820008093F100615071092F5F3F4FE7CF8091B6
:100830002806882341F0853041F08091E80083FF4D
:10084000BECF81E0089582E0089583E00895089581
:10085000809105060895209118012223C9F0209166
:10086000DF0527FF15C0E62FE695E695E695EE3104
:10087000D8F4E80FF92FF11D677021E030E001C0D6
:10088000220F6A95EAF72095828128232283089512
:10089000FC01329608962191621303C0DF01119783
:1008A0001C92E817F907B9F708952091180122233F
:1008B000C1F02091DF0527FF14C0E62FE695E695ED
:1008C000E695EE31F8F4E80FF92FF11D677021E09D
:1008D00030E001C0220F6A95EAF78281822B828381
:1008E0000895FC0132962FEF30E04191641751F0EA
:1008F0002F3F19F4411101C0232F3F5F3630A9F774
:100900002F3F09F40895820F911D27FD9A95FC0150
:10091000628308958091BA0581111092BA050895F5
:100920008091B9059091B805892B9091B705892BD5
:100930008093A6039091BA059923A1F0892B809307
:10094000A60380911801882341F18091DF0587FF7C
:1009500024C08EE1E8EAF3E090E0815000F59111C7
:100960000E948A04E091E105F091E2053097E1F000
:1009700080911801882359F08091DF0587FF07C017
:100980008091A6038093A70385E08093A60302804D
:10099000F381E02D86EA93E0099486E0DBCF219194
:1009A0002223D9F29F5FD9CF0895E92FEE0FE90FE7
:1009B000EE0F8E0F982F977086958695869525E079
:1009C000829FF0011124E158FA4F50E040E080E0AE
:1009D000219130E0092E02C0369527950A94E2F75E
:1009E00021703327042E01C0220F0A94EAF7822BCC
:1009F0004F5F5F4F4530510559F70895E92FEE0FCE
:100A0000E90FEE0F8E0F982F977041E001C0440F51
:100A10009A95EAF786958695869595E0899FF001E7
:100A20001124E158FA4F30E020E070E05191DF01ED
:100A30001197CB01022E02C0969587950A94E2F792
:100A4000817081958527842385278C932F5F3F4F65
:100A50002530310559F7089580917E0590914D0517
:100A6000981301C008958F5F8770FACF882341F0F3
:100A700080959091B80589238093B8050C949004D3
:100A80000895882339F09091B805982B9093B80574
:100A90000C9490040895882341F080959091B905B5
:100AA00089238093B9050C9490040895882339F024
:100AB0009091B905982B9093B9050C9490040895E2
:100AC00020913105309132052817390771F0909344
:100AD000320580933105E091E105F091E205309710
:100AE00021F00084F185E02D0994089520912F05CF
:100AF000309130052817390771F0909330058093B5
:100B00002F05E091E105F091E205309721F0068094
:100B1000F781E02D099408951092B8051092B70559
:100B20000E94900490E080E00E94760590E080E0D2
:100B30000C9460056093BB057093BC058093BD0564
:100B40009093BE050C948C05882379F19CEF980F47
:100B5000913A38F4682F86EA93E00E942B040C94B3
:100B6000900490E2980F983088F4877021E030E08C
:100B7000A90102C0440F551F8A95E2F7CA0180956A
:100B80009091B90589238093B905E9CF9BE5980F2A
:100B9000933020F490E080E00C947605885A8731F9
:100BA00020F490E080E00C9460050895CF93C82F66
:100BB000882309F467C08CEF8C0F813AC0F58091CF
:100BC0001801882311F18091DF0587FF1EC0EC2FEB
:100BD000E695E695E695F0E0EA55FC4F828190E0D7
:100BE0004C2F477021E030E002C0220F331F4A959E
:100BF000E2F782239323892B91F06C2F86EA93E00E
:100C00000E942B040E9490040AC0E8EAF3E08EEAF6
:100C100093E02191C21789F38E179F07D1F76C2FAC
:100C200086EA93E00E945504CF910C94900480E2F0
:100C30008C0F883068F4C77021E030E001C0220FCB
:100C4000CA95EAF78091B905822B8093B905ECCF5C
:100C5000EBE5EC0FE33040F4F0E0E057FD4F80812E
:100C600090E0CF910C947605C85AC73158F4EC2F18
:100C7000F0E0EE0FFF1FED56FD4F80819181CF9187
:100C80000C946005CF910895E091E105F091E205A3
:100C9000309721F00190F081E02D099480E00895D3
:100CA000FA01811101C0FB0109948033910538F5E7
:100CB000880F991F880F991FFC01E85DFE4F528134
:100CC000338180818370E181A82FB0E070E9879F34
:100CD000C001112489519C4FE80FF92FF11DB497E1
:100CE0006083FC01E50FF11DB4974083830F911DD4
:100CF000FC01B4972083AB51BC4F81E08C930895E5
:100D0000FF920F931F93CF93DF93182F062FF42E8C
:100D1000D0E0C0E02F2D402F612FCE010E9455065C
:100D20002196C033D105B1F7DF91CF911F910F917B
:100D3000FF9008950C9480060C9455060F931F9312
:100D400010E0F801EE0FFF1FEB5EFC4F9081905713
:100D500097FD9195000F111FF801EA5EFC4F00818D
:100D60000052110B2003F001219FF00D112408E324
:100D700010E0091B110997FD139540039001419F55
:100D8000300D1124E20FF31F9F01220F331F2E0F8E
:100D90003F1F37FF02C021583F4F220F232F221F32
:100DA000330B620F1F910F9108950F931F93522FD2
:100DB00010E0F801EE0FFF1FEA5EFC4FA081A05289
:100DC000BB0B9D015203F001539FF00D1124000F46
:100DD000111FD801AB5EBC4F0C910057110B4003A3
:100DE0009001419F300D11242E0F3F1F37FF02C08D
:100DF000215C3F4F96E0359527959A95E1F7620F74
:100E00001F910F9108950F931F93522F10E0F80137
:100E1000EE0FFF1FEA5EFC4FA081A052BB0B9D01AD
:100E20005203F001539FF00D1124000F111FD80140
:100E3000AB5EBC4F0C910057110B40039001419FDA
:100E4000300D11242E0F3F1F37FF02C021583F4F96
:100E5000220F232F221F330B620F1F910F91089532
:100E6000EF920F93972F23E0029FB0011124759505
:100E700067956E0D792F0F91EF900895322F50E006
:100E8000FA01EE0FFF1FEA5EFC4F9081905297FD32
:100E90009195440F551FFA01EB5EFC4F2081231BF7
:100EA000330B290F311D97FD3A95620F0895E42FFA
:100EB000F0E0EE0FFF1FEA5EFC4F6081621B0895B9
:100EC000E42FF0E0EE0FFF1FEB5EFC4F6081621B32
:100ED0000895622F0895E42FF0E0EE0FFF1FEB5E00
:100EE000FC4F408134EE439F412D1124E82FF0E068
:100EF00050E0445E5F4FDA01A21BB1099D01B7FFCC
:100F000003C031952195310993E0220F331F9A9543
:100F1000E1F7AF01421B530B9A0157FD20E0582F18
:100F2000259F212D1124822F0895E42FF0E0EE0F4C
:100F3000FF1FEB5EFC4F408134EE439F412D112497
:100F4000E72FF0E050E0445E5F4FDA01A21BB109E9
:100F50009D01B7FF03C031952195310993E0220F20
:100F6000331F9A95E1F7AF01421B530B9A0157FDCE
:100F700020E0279F212D1124722F0895FC019B0151
:100F8000009729F480E077FF2BC080E80895AC013A
:100F900097FF04C044275527481B590BB901640F1C
:100FA000751F37FD10C0241B350BC901A5E0880F44
:100FB000991FAA95E1F70E94A42880E2861BF7FFFB
:100FC0000FC081950895CB0165E0880F991F6A9540
:100FD000E1F7BA01621B730B0E94A42880E6EECFF2
:100FE0000895EF920F93CF93DF93D72FC82FC901A6
:100FF0000E19BA010E94BE07602F681B7D2F8C2F2F
:10100000DF91CF910F91EF9008950F93CF93DF93DE
:10101000D72FC82FC901BA010E94BE07682F600FE1
:101020007D2F8C2FDF91CF910F910895EF920F9329
:101030001F93CF93DF93D62FC72F182FC9010E19F7
:10104000010FBA010E94BE07081B202F219F212DEE
:101050001124822F6D2F7C2FDF91CF911F910F9143
:10106000EF900895EF920F931F93CF93DF93D62FB6
:10107000172FC82FC9010E19070FBA010E94BE070A
:10108000702F781B719F712D11246D2F8C2FDF9184
:10109000CF911F910F91EF9008950F931F93CF93CE
:1010A000DF93D62FC72F182FC901212F201B022F06
:1010B000BA010E94BE07982F990F990F891B800FC4
:1010C000282F219F212D1124822F6D2F7C2FDF911E
:1010D000CF911F910F9108950F931F93CF93DF939B
:1010E000D62F172FC82FC901272F201B022FBA0177
:1010F0000E94BE07982F990F990F782F791B700FB8
:10110000719F712D11246D2F8C2FDF91CF911F9125
:101110000F910895E82F86FDE0952E2F2F7086FD04
:101120002F5FE695E695E695E670F0E0E05EFE4F0F
:101130009181929F902D212D112492959F7022953F
:10114000207F922B2081920F87FD919580E8890F57
:101150000895AC018230910508F408959FEF413E57
:101160008EE1580740F49A0195E0369527959A95B7
:10117000E1F798E0920F61E0E62FE90FFF27FF1FEC
:101180009F0135952795822F229FF001239FF00D17
:10119000F00D11244E175F0738F49FEF920F96174A
:1011A00058F78FEF860F08952F3FE9F361E0620F44
:1011B000F6CF0F93CF93DF93D72FC82F47FD4195DD
:1011C00088E390E0841B910947FD9395889FB001C7
:1011D000899F700D700D1124229FC001239F900DD7
:1011E000900D1124860F971F0E94A908982F990F20
:1011F000890F682F600F7D2F8C2FDF91CF910F917A
:10120000089530E020E0869F212D969F200D311D0E
:101210001124C9010895AF92BF92CF92DF92FF923D
:101220000F931F93CF93DF93362F472FE82FF0E0D4
:10123000E455FF4F71110FC0E4918E2F2E2F6E2FAA
:10124000722FDF91CF911F910F91FF90DF90CF9080
:10125000BF90AF900895C72FD0E02491F22E022FB7
:1012600010E056E0659FC0011124EFEFF0E0BF01F0
:101270000E949028832F90E0880F991F35E5369FB4
:10128000D001379FB00D11248A1B9B0B982F990F0B
:10129000980F6F01CC1ADD0AC09ED001C19EB00D1F
:1012A000D09EB00D11248B2F499FA0011124452FF2
:1012B00055276F01C41AD50AC09EA001C19E500DCA
:1012C000D09E500D11245F01A91AB108AC9E600197
:1012D000AD9ED00CBC9ED00C1124CD2CDD24EC197D
:1012E000FD09E09FE001E19FD00DF09FD00D11249A
:1012F000ED2F62307105A1F050F46115710509F40C
:101300009ECF6130710581F0EB2F852F98CF64302F
:10131000710569F080F06630710509F490CFF4CF63
:10132000E22F2B2F8D2F8BCFE22F252F88CFEB2F66
:10133000822F2D2F84CF2B2F8F2DE52F80CF9F92A3
:10134000AF92BF92CF92DF92EF92FF920F931F93D3
:10135000CF93DF936C0180911901C82FCC0FCC0F74
:10136000C80F15E01C0FB12E113310F030E3B32E6F
:1013700060913A06669566958091320690913306A3
:101380000E940109F82E80E48F0D0E948A0890E8DF
:10139000A92EA80E8F2D0E948A0820E8922E980E62
:1013A000D0E0CB1580F081E0103308F080E0DF91D1
:1013B000CF911F910F91FF90EF90DF90CF90BF9052
:1013C000AF909F900895FE01EB58FC4F8081909163
:1013D0001A018923A1F06091370670913806809137
:1013E0003906EF2C0C2F292D4A2DF60109950E9464
:1013F0000B09462F282F672FCE010E949C062196AD
:10140000D0CF7F928F929F92AF92BF92CF92DF9276
:10141000EF92FF920F931F93CF93DF935C01809124
:101420001901C82FCC0FCC0FC80F15E01C0FF12EDF
:10143000113310F030E3F32E60913A0666958091F7
:101440003206909133060E940109782ED0E0CF1524
:1014500090F081E0103308F080E0DF91CF911F9190
:101460000F91FF90EF90DF90CF90BF90AF909F9043
:101470008F907F900895FE01EB58FC4F80819091F2
:101480001A018923C9F1CE01880F991F8F539D4FEF
:10149000FC01EC5AFF4F2081422F4057550B6A0147
:1014A0008B5A9F4FFC018081282F2052330B49011A
:1014B000449F9001459F300D300D1124889CC00140
:1014C000899C900D900D1124820F931F0E94A908F2
:1014D000082F609137067091380680913906E72C05
:1014E0009401A601F50109950E940B09462F282FAA
:1014F000672FCE010E949C062196A9CFCF92DF9242
:10150000EF92FF920F931F93CF93DF937C01809113
:101510001901C82FCC0FCC0FC80F15E01C0FD12E0E
:10152000113310F030E3D32E60913A066695809126
:101530003206909133060E940109C82ED0E0CD15E5
:1015400068F081E0103308F080E0DF91CF911F91C7
:101550000F91FF90EF90DF90CF900895FE01EB5830
:10156000FC4F808190911A01892311F1CE01880FDF
:10157000991F8F539D4FFC01EB5AFF4F2081205242
:10158000330B8C5A9F4FFC0140814057550B6091A3
:10159000370670913806809139060C2DF7010995B0
:1015A0000E940B09462F282F672FCE010E949C0610
:1015B0002196C5CFDF92EF92FF920F931F93CF93A7
:1015C000DF937C0180911901C82FCC0FCC0FC80F7D
:1015D00015E01C0F012F113308F000E360913A066B
:1015E0006695669580913206909133060E940109B6
:1015F000D82ED0E0C01760F081E0103308F080E012
:10160000DF91CF911F910F91FF90EF90DF900895A0
:10161000FE01EB58FC4F808190911A01892391F0D3
:101620006091370670913806809139062D2D4C2F28
:10163000F70109950E940B09462F282F672FCE012D
:101640000E949C062196D6CF9091DF0592FF06C09E
:10165000282F28712830F9F4877F846093FF06C013
:10166000282F28712831F1F4877E84612091E005CC
:1016700020FF06C0382F38713830D9F4877F816059
:1016800021FF06C0282F28712831D1F4877E81617F
:1016900094FD877E0895282F24712430F9F68B7FDE
:1016A0008860DCCF282F2471243101F78B7E88617C
:1016B000DDCF382F3171313019F78E7F8860E0CF60
:1016C000282F2171213121F78E7E8861E1CFCF93C0
:1016D000DF93972F70E026E0929F600D711D11241B
:1016E000FB0134E5839FE00DF11D1124EE0FFF1F78
:1016F000E455FE4FC591D491CE01C238D105B9F160
:10170000E8F5C133D10509F499C050F5C932D105C6
:1017100009F48DC0CA32D10509F497C0C11542E55C
:10172000D40708F0B6C0C11521E5D20708F02EC1D4
:10173000C83ED10508F09DC0C03ED10568F5C83A45
:10174000D10508F089C0C53AD10508F0F7C0C1300D
:10175000D10511F1209709F443C02497E8F440C063
:10176000C533D10509F45CC0C933D105B9F6209160
:10177000DF05237089F080EE90E00EC0C33ED105F6
:1017800091F168F4C03ED105F9F0C23ED10531F6C1
:101790002091DF0522FD20C0DF91CF910895C63E44
:1017A000D10561F1C73ED10581F1C43ED10509F0F3
:1017B000B5CF2091E00521FFEFCF8091DF0584FDBB
:1017C0000FC087EE90E0E8CF2091DF0520FD0EC12D
:1017D0003091E00530FFE0CF83EE90E024FFDCCFD6
:1017E00090E080E0D9CF2091DF0522FD02C1309149
:1017F000E00530FDC0CF24FFCFCFF2CF2091DF0531
:1018000023FFCACF24FDECCFDCCF2091DF0523FDE1
:10181000F3C03091E00531FFEECF84EE90E0BCCF15
:101820002091DF0525FFB8CF89E290E0B5CF209168
:10183000DF0525FFB1CF85E390E0AECF2091DF0536
:1018400026FFAACF8AE290E0A7CF2091DF0526FFEE
:10185000A3CF81E390E0A0CFCF3BD10508F6C85AD3
:10186000D0E0CC0FDD1FCD56DD4F88819981946487
:1018700093CFC11530E5D30708F06CC0C11540E423
:10188000D40708F063C0DA95C115DF4108F484CFAE
:10189000A7CFC11536E5D30718F5C11545E5D4071F
:1018A00008F08AC0C11584E5D80708F080C09C2FD5
:1018B00096959695AE0143705527C115D34508F40A
:1018C0006AC021E030E002C0220F331F4A95E2F7E0
:1018D00040E2949FC0011124822B932B9A685CCF25
:1018E000C1153AE5D30778F4C11549E5D40708F0E6
:1018F0006DC0C11588E5D80708F472CF9C2F8827E2
:10190000806F906A49CFC1159BE5D90708F468CF6D
:10191000CE01C1152CE5D20708F465C0905681159B
:10192000904208F05DCF8D2F8F710E94240B90E0C4
:10193000982F882788279F718C2B46C0C55AD0E0E6
:10194000C057DD4F888190E0906426CFCE019F7014
:10195000906A22CF9E01E4E036952795EA95E1F75B
:1019600023708C2F86958695837040E2849FC001FA
:101970001124922BC37021E030E002C0220F331FEC
:10198000CA95E2F7822B932B9C6806CF9C2F882761
:10199000816F906A01CF21E030E002C0220F331F37
:1019A0004A95E2F740E2949FC0011124EBCF9C2FAF
:1019B0008827846F906AF0CE8C2F0E94240B90E0D1
:1019C000982F882788279F719062E6CE8C2F8F7082
:1019D0000E94240B34E0D695C7953A95E1F7CF7075
:1019E0009C2F9069D9CE99279066D6CE89E390E056
:1019F000D3CE82EE90E0D0CE86EE90E0CDCEBF92F8
:101A0000CF92DF92EF92FF920F931F93CF93DF93CA
:101A10008C01C090DB05D090DC05E090DD05F090F6
:101A2000DE058091BB059091BC05A091BD05B091EC
:101A3000BE05C82AD92AEA2AFB2ACFE1D0E0BC2E6B
:101A4000D701C6010C2E04C0B695A795979587952A
:101A50000A94D2F780FD0EC0219788F7B12C8B2D08
:101A6000DF91CF911F910F91FF90EF90DF90CF907A
:101A7000BF900895B8018C2F0E94670B019761F306
:101A8000EECFCF93DF93EC010E94FF0CBE01DF91FC
:101A9000CF910C94670B0E94410D292F2F709295C6
:101AA0009F7092509E3078F4E92FF0E0EE5FF44D95
:101AB0000C94B828803F19F020F4883E20F481E08F
:101AC0000895843FE1F380E00895883EC0F3813FAC
:101AD000D1F7F5CF822F869586958695089527981C
:101AE0002F98089526982E98089525982D98089552
:101AF00056985E980895279A2F9A0895269A2E9AB6
:101B00000895259A2D9A0895CF92DF92EF92FF9231
:101B1000CF936B017C01C701AA27BB27C0E10097C7
:101B2000A105B10519F4D701CB01C0E0492F5A2F07
:101B30006B2F7727411551056105710519F0C85FB5
:101B4000DB01CA01AC01BD01E4E0769567955795CC
:101B50004795EA95D1F7411551056105710519F0D1
:101B6000CC5FDB01CA01AC01BD0132E0769567951F
:101B7000579547953A95D1F741155105610571057E
:101B800019F0CE5FDB01CA01B695A79597958795A9
:101B9000892B8A2B8B2B09F0CF5F0E94780D0E9436
:101BA000750D0E94720D0E946F0DC150C73040F438
:101BB000EC2FF0E0E05FF44D0C94B8280E94810D0A
:101BC000C701B601CF91FF90EF90DF90CF900895BD
:101BD0000E94810D0E947E0DF3CF0E94810D0E9414
:101BE0007B0DEECF0E94810D0E947E0DF8CF0E94EA
:101BF000840D6093DB057093DC058093DD05909385
:101C0000DE050C948C050F931F9341E050E060E0DB
:101C100070E004C0440F551F661F771F8A95D2F7E6
:101C2000CB01BA0160957095809590950091DB0588
:101C30001091DC052091DD053091DE0560237123D4
:101C4000822393231F910F910C94F70D9091B60569
:101C5000809589238093B605282F277071F4282F4B
:101C6000082E000C330B9217130639F085958595D5
:101C700085950E94030E1092B60508950F931F9349
:101C800041E050E060E070E004C0440F551F661F63
:101C9000771F8A95D2F78091DB059091DC05A091A2
:101CA000DD05B091DE058A019B01082B192B2A2B3B
:101CB0003B2BC901B8011F910F910C94F70D20988F
:101CC00028982198299822982A9823982B985298F6
:101CD0005A9853985B983E98469808958098889AA9
:101CE0008198899A84988C9A85988D9A86988E9AEC
:101CF00087988F9A0895CF9384E090E00E94552AA8
:101D0000C82F81E290E00E94552A982F8C2FCF9106
:101D10000895CF93DF9300D00F92CDB7DEB79091A7
:101D20002806943019F589837B836A8382E0809347
:101D3000E9008FEF9091E800815095FD06C095ED88
:101D40009A95F1F700008111F5CF8091E80085FFA9
:101D50000DC050E040E063E070E0CE0101960E94CB
:101D6000ED028091E8008E778093E8000F900F904D
:101D70000F90DF91CF910895BC0184E00C94890EFF
:101D8000BC0183E00C94890ECF93DF93EC0180912A
:101D900018018823B1F18091DF0587FF32C060E22E
:101DA00082E08093E9008FEF9091E800815095FDEB
:101DB00006C095ED9A95F1F700008111F5CF80915D
:101DC000E80085FF1BC08091180170E050E040E002
:101DD000811104C050E040E068E070E0CE010E9454
:101DE000ED028091E8008E778093E80080E2FE01AA
:101DF000A6E0B6E001900D928A95E1F7DF91CF91D0
:101E0000089568E081E0CDCFCF93C82F0E94D6051A
:101E1000C93349F42FEF87EE93E021508040904082
:101E2000E1F700C000008C2FCF910C94A405EF9235
:101E3000FF920F931F93CF93DF930E94780D0E9420
:101E4000750D0E94720D0E946F0D88E8E82EF12C2E
:101E50008FEF90E0F701918380830AE810E0F801AA
:101E600091838083CCE8D0E0998388830E94810DA0
:101E7000FFEF20E782E0F15020408040E1F700C012
:101E800000000E947E0D9FEFE0E7F2E09150E040FD
:101E9000F040E1F700C000000E947B0D2FEF80E7CB
:101EA00092E0215080409040E1F700C000000E9485
:101EB000750DEFEFF0E722E0E150F0402040E1F750
:101EC00000C000000E94720D8FEF90E7E2E08150A9
:101ED0009040E040E1F700C000000E946F0D80914B
:101EE000C9058770FFEF8F9FC001112495958795D5
:101EF000959587959927F70191838083F8019183C0
:101F00008083998388830E94780D0E94750D0E94BA
:101F1000720DDF91CF911F910F91FF90EF900C9474
:101F20006F0D6FEE7EEF90E080E00E94972A60E0F8
:101F300082E090E00E94792A60E083E090E00E94D5
:101F4000792A1092BB051092BC051092BD05109223
:101F5000BE0560E084E090E00E94792A60E081E2C2
:101F600090E00E94792A60E085E090E00E94792A62
:101F700060E086E090E00E94792A6FEF87E090E0D1
:101F80000E94792A40E050E0BA0188E090E00E9487
:101F90008B2A60E08DE090E00E94792A40E050E0DA
:101FA000BA0188E190E00E948B2A60E087E190E02E
:101FB0000E94792A40E050E0BA018CE190E00E9452
:101FC0008B2A60E080E290E00E94792A1092C90595
:101FD0001092CA051092CB051092CC0584E0806166
:101FE0008093C9054091C9055091CA056091CB0500
:101FF0007091CC058FE090E00E948B2A40E050E089
:10200000BA0183E190E00C948B2A1092B90580917B
:102010001801E8EAF3E0882359F08091DF0587FF93
:1020200007C08EE1DF011D928A95E9F70C948C05BB
:1020300086E0F8CF1F93CF93DF93CDB7DEB7AA9793
:102040000FB6F894DEBF0FBECDBF8AE296E02091B6
:10205000F100FC012193CF01F6E082339F07B9F72D
:1020600080912B06833009F46FC0B8F4813009F4F5
:1020700046C0823009F4B0C08091E80083FF87C277
:1020800080912A0690912B069A3008F080C2E92FA1
:10209000F0E0E95EF44D0C94B8288A3009F48BC066
:1020A0008B3009F46EC0893039F780912A0681326D
:1020B00019F780912E0690912F060297E8F68091ED
:1020C000E800877F8093E8008091E80082FF37C0B6
:1020D0009091F3008091F200029729F48091F10031
:1020E0008B7F813021F48091F100809305068091EF
:1020F000E8008B778093E8000E941703BDCF8091A2
:102100002A06813A09F0B8CF8091E800877F809352
:10211000E80080912E0690912F06892B61F460E2F1
:1021200086E096E070E00E94C9038091E8008B771A
:102130008093E800A1CF60E090E080E0F3CF809151
:1021400028068111C1CF98CF80912A06813A09F0E3
:1021500093CF80912E0690912F06892B09F08CCF7A
:102160008091E800877F8093E8008091E80080FFFD
:10217000FCCF809118018093F1008091E8008E7768
:10218000B9CF80912A06813209F076CF80912E0650
:1021900090912F06892B09F06FCF8091E800877FFF
:1021A0008093E8000E94170380912C068093180109
:1021B0000E94051061CF80912A06813209F05CCF20
:1021C0008091E800877F8093E8000E941703809148
:1021D0002D068093040650CF80912A06813A09F09B
:1021E0004BCF8091E800877F8093E8008091E800E2
:1021F00080FFFCCF80910406BECF803899F08238F2
:1022000009F0C5C180912E068F70873008F0BFC1DC
:102210008093E9008091EB0085FB882780F910927C
:10222000E90006C0809126069091270691118260F0
:102230009091E800977F9093E8008093F1001092CE
:10224000F1008091E8008E779EC1882309F48CC14B
:10225000823009F09CC180912C0681118FC1809140
:102260002E068F702FEF280F263008F090C1809334
:10227000E9002091EB0020FF81C1933031F480917F
:10228000EB0080628093EB0079C19091EB0090614C
:102290009093EB0021E030E001C0220F8A95EAF72D
:1022A0002093EA001092EA008091EB008860EACF68
:1022B00081116DC110912C061F778091E300807809
:1022C000812B8093E3008091E800877F8093E80072
:1022D0000E9417038091E80080FFFCCF8091E3000B
:1022E00080688093E30082E0111183E080932806E8
:1022F0004EC18058823008F04AC180912C069091DE
:102300002D068C3D23E09207A1F583E08A838AE2C3
:1023100089834FB7F894DE01139620E03EE051E246
:10232000E32FF0E050935700E49120FF03C0E295C3
:10233000EF703F5FEF708E2F90E0EA30C0F0C796ED
:102340008D939D932F5F243159F74FBF8091E80003
:10235000877F8093E8006AE270E0CE0101960E94D8
:10236000C9038091E8008B778093E80010C1C09684
:10237000E7CF40912E0650912F06292F3327233087
:10238000310509F445C078F52130310509F47BC0E9
:102390008BE390E0E1E5F4E02230310509F0F7C08D
:1023A0002091E800277F2093E800209130063091AB
:1023B00031068217930708F49C0140E0211531058E
:1023C00009F070C041116EC08091E80082FDC9CF54
:1023D00080912806882329F2853019F28091E8003F
:1023E00083FFF2CFBECF2132310509F440C0223243
:1023F000310509F0CCC04115510509F44EC04130FA
:10240000510509F0C4C08DE690E0E4EAF3E0C8CFDE
:10241000992781309105D9F0009771F082309105AC
:10242000F1F0039709F0B3C0EEE9F4E0E4918E2FE8
:1024300090E0EEE9F4E007C0E8EFF4E0E4918E2FDD
:1024400090E0E8EFF4E0009709F4A1C0A9CFE6EC32
:10245000F4E0E4918E2F90E0E6ECF4E0F4CFE4EACF
:10246000F4E0E4918E2F90E0E4EAF4E0ECCF411543
:10247000510571F04130510509F089C089E090E0C3
:10248000ECE7F4E08DCF82E190E0ECE8F4E088CF77
:1024900089E090E0E3E6F4E083CF80E490E0E1E1DE
:1024A000F4E07ECF80912806882309F45ACF853046
:1024B00009F457CF8091E80083FD53CF8091E80065
:1024C00082FD82CF8091E80080FF78CF9091F30069
:1024D0008091F2002115310519F08830910550F0F6
:1024E00041E0089709F040E08091E8008E77809302
:1024F000E80064CF44914093F100319621503109B6
:102500000196E8CF803809F042C08091E800877FCB
:102510008093E800809129068093F10092CE81118A
:1025200036C010912C06123090F58091E800877F1C
:102530008093E800109329060E941703112311F0DD
:1025400084E005C08091E30087FDFACF81E08093AD
:10255000280642E061EC81E00E94360342E261EC31
:1025600082E00E94360313C080912C06813079F4FA
:1025700081E0933009F080E0809327061092E90013
:102580008091E800877F8093E8000E941703809184
:10259000E80083FF0AC08091E800877F8093E8000D
:1025A0008091EB0080628093EB00AA960FB6F894BE
:1025B000DEBF0FBECDBFDF91CF911F9108950F9366
:1025C0001F93CF93DF93082F000FEB0114E21093BA
:1025D000D103E2EDF3E0DE018D91819383E0E23EF1
:1025E000F807D1F724E630E041E150E061ED73E017
:1025F000802F0E946528105F6096143B41F7DF91A1
:10260000CF911F910F9108958091E503882329F0C0
:1026100067EE73E084E70E94DF121092E503809179
:10262000E603882329F067E774E087E70E94DF125A
:102630001092E6030895E1EDF3E06083418324E620
:1026400030E042E050E0BF01880F0C9465280F9302
:102650001F93CF93DF93082FE62FF0E0E55DFA4F4D
:102660008081882379F082E1689FE0011124C95FAD
:10267000DA4F10E04991612F802F0E941B131F5FDA
:102680001231C1F7DF91CF911F910F910895CF9330
:10269000DF93C82F4BE06DEF0E941B1340E06AE010
:1026A0008C2F0E941B138FE39CE90197F1F700C068
:1026B000000040E060E08C2F0E941B1340E061E0CE
:1026C0008C2F0E941B1340E066E08C2F0E941B138E
:1026D00040E06DEF8C2F0E941B13D0E040E06D2F87
:1026E0008C2F0E941B13DF5FD231C1F740E06D2FAA
:1026F0008C2F0E941B13DF5FD432C1F740E06D2F97
:102700008C2F0E941B13DF5FD43BC1F74BE06DEFB2
:102710008C2F0E941B1341E06AE08C2F0E941B1338
:1027200040E06DEF8C2FDF91CF910C941B136F92D3
:102730007F928F929F92AF92BF92CF92DF92EF9251
:10274000FF920F931F93CF93DF930E94B02784E7EC
:102750000E94471387E70E94471368E2E62E61E074
:10276000F62ED12CC12C72E1772EE8E08E2E912C22
:10277000AA24A394B12C66246394F701418150E00C
:10278000CA01849702810452110BC381C452DD0B2C
:10279000F601EE0FFF1FEE0FFF1FE85DFE4F2081D9
:1027A000237030E0FC0197FD379643E0F595E795FF
:1027B0004A95E1F7729EA001739E500D1124495F66
:1027C0005A4FE40FF52FF11DB4010E94A428A50172
:1027D00001C0440F8A95EAF78081842B8083F80139
:1027E00017FD379693E0F595E7959A95E1F7729E78
:1027F000C001739E900D1124895F9A4FE80FF92F45
:10280000F11DC801B4010E94A428A50101C0440F14
:102810008A95EAF78081842B8083FE01D7FD379665
:1028200083E0F595E7958A95E1F7729EC001739E66
:10283000900D1124895F9A4FE80FF92FF11DCE01F9
:10284000B4010E94A428A50101C0440F8A95EAF7AB
:102850008081842B8083255D3A4FF9016082FFEFF0
:10286000CF1ADF0A84E0E80EF11CE0E3CE16D104B3
:1028700009F083CF60E084E70E94271361E087E7D7
:10288000DF91CF911F910F91FF90EF90DF90CF904C
:10289000BF90AF909F908F907F906F900C94271374
:1028A0001F93CF93DF93EC01FC01EB58FC4F808129
:1028B0006823A1F00E940A29182F0E940A29612F7B
:1028C000782F809139060E940B09462F282F672FF9
:1028D000CE01DF91CF911F910C949C06DF91CF9197
:1028E0001F910895DF92EF92FF920F931F93CF9362
:1028F000DF938C01FC01EB58FC4F8081682381F150
:10290000D0903806D0913906C0913706EC2EF12CC4
:102910000E940A29282FC7018C549F4F68E671E056
:102920000E94A4288E199F0997FD03969595879577
:102930009595879523706C2F289F600D11247D2D10
:102940008D2F0E940B09462F282F672FC801DF917A
:10295000CF911F910F91FF90EF90DF900C949C0608
:10296000DF91CF911F910F91FF90EF90DF9008952D
:1029700045E050E06CE170E086E396E00C94692A53
:1029800090913606937041F0809337066093380635
:10299000409339060C94B8140895E6E3F6E04381B9
:1029A00020E1421B08F440E08181628190E00C94B8
:1029B000C014E6E3F6E0438120E1420F08F44FEF54
:1029C0008181628190E00C94C014E6E3F6E06281BC
:1029D00020E1621B08F460E08181438190E00C9467
:1029E000C014E6E3F6E0628120E1620F08F46FEFC5
:1029F0008181438190E00C94C014E6E3F6E081818C
:102A0000438162818850990B0C94C014E6E3F6E090
:102A1000818190E04381628108960C94C01490916A
:102A20003606937089F0811107C094609093360642
:102A300010921C010C94B814893110F09066F6CFF6
:102A4000880F880F982BF2CF0895809136068695CF
:102A50008695815009F488E10C940F158091360613
:102A6000869586958F5F893108F081E00C940F156B
:102A70000C940F15E6E3F6E0248130E1230F08F40F
:102A80002FEF24830C94B814E6E3F6E0248130E1C0
:102A9000231B08F420E024830C94B814E6E3F6E04A
:102AA00085E3808380911D0190911E01A0911F01FB
:102AB00081839283A3838CE384830C94B8140E9453
:102AC000971390E080E00E94632A8F3E9E4F21F092
:102AD0000E94910F0E944E1545E050E06CE170E0BD
:102AE00086E396E00E94452A809136068C7F11F499
:102AF0000C944E15089580E290E090930D01809320
:102B00000C018091C60381110EC00E94B02781E0A4
:102B10008093C6032FEF83ED90E3215080409040D7
:102B2000E1F700C0000064E670E080E40E94B62790
:102B300090930D0180930C01892B09F04EC064E63F
:102B400070E080E00E94122890930D0180930C01A8
:102B5000892B09F042C064E670E080E00E941228F0
:102B600090930D0180930C01892BB9F564E670E018
:102B70008FE30E94122890930D0180930C01892B02
:102B800061F50E948C2864E670E080E40E94B6271C
:102B900090930D0180930C01892BF9F464E670E0A9
:102BA0008CE00E94122890930D0180930C01892BD8
:102BB000A1F464E670E080E00E94122890930D0179
:102BC00080930C01892B49F464E670E08FE30E9446
:102BD000122890930D0180930C010E948C28809103
:102BE0000C010895CF93C82F873070F580910C01A8
:102BF00090910D01892B89F564E670E080E40E94D4
:102C0000B62790930D0180930C01892BD1F464E6D3
:102C100070E082E10E94122890930D0180930C01D4
:102C2000892B79F481E090E001C0880FCA95EAF71A
:102C300064E670E080950E94122890930D018093C5
:102C40000C01CF910C948C288A30B9F040F4883074
:102C500071F0893079F0209A2898CF9108958C30BE
:102C600091F070F08D30B9F73E9A4698F6CF219AE0
:102C70002998F3CF229A2A98F0CF239A2B98EDCF58
:102C8000529A5A98EACF539A5B98E7CFCF938730FE
:102C900050F580910C0190910D01C0E0892B71F4E9
:102CA00064E670E081E40E94B62790930D01809362
:102CB0000C01892B31F0C0E00E948C288C2FCF9121
:102CC000089584E690E00E94412897FF05C0909304
:102CD0000D0180930C01EFCFC82FC09510920D010C
:102CE00010920C01E9CFCFB18FB1869586958C7388
:102CF000C3708C2BC82FC095E1CF1F920F920FB6D7
:102D00000F9211242F933F934F935F936F937F9371
:102D10008F939F93AF93BF93CF93DF93EF93FF93E3
:102D2000D091E900DF708091EC00C82FC17080FD68
:102D3000C0E81092E9008091F000877F8093F00056
:102D400078940E941A101092E9008091F000886037
:102D50008093F000CD2BCF70C093E900FF91EF91ED
:102D6000DF91CF91BF91AF919F918F917F916F91A3
:102D70005F914F913F912F910F900FBE0F901F9039
:102D800018951F920F920FB60F9211242F933F9315
:102D90004F935F936F937F938F939F93AF93BF9363
:102DA000EF93FF938091E10082FF09C08091E200E0
:102DB00082FF05C08091E1008B7F8093E1008091CC
:102DC000DA0080FF24C08091D80080FF20C080916D
:102DD000DA008E7F8093DA008091D90080FFA1C055
:102DE00080E189BD82E189BD09B400FEFDCF81E0AB
:102DF0008093280680910206811109C00E949D02DD
:102E00000E9468038091E20084608093E2008091D8
:102E1000E10080FF17C08091E20080FF13C0809125
:102E2000E2008E7F8093E2008091E20080618093D7
:102E3000E2008091D80080628093D80019BC85E0C0
:102E4000809328068091E10084FF2FC08091E200EA
:102E500084FF2BC080E189BD82E189BD89B5982FAF
:102E6000917080FFFBCF8091D8008F7D8093D80038
:102E70008091E1008F7E8093E1008091E2008F7E5F
:102E80008093E2008091E20081608093E200809173
:102E90002906882309F44BC084E0809328060E9409
:102EA00005100E944406109203068091E10083FF02
:102EB00027C08091E20083FF23C08091E100877FDB
:102EC0008093E10082E08093280610922906809189
:102ED000E1008E7F8093E1008091E2008E7F8093FD
:102EE000E2008091E20080618093E20042E060E0D5
:102EF00080E00E9436038091F00088608093F000AB
:102F0000FF91EF91BF91AF919F918F917F916F91C1
:102F10005F914F913F912F910F900FBE0F901F9097
:102F2000189519BC109228061092020670CF809155
:102F3000E30087FD93E090932806B1CF78941F9229
:102F40001FB61F9211248F939F93AF93BF938091CD
:102F5000BF059091C005A091C105B091C205019631
:102F6000A11DB11D8093BF059093C005A093C1051D
:102F7000B093C205BF91AF919F918F911F901FBEDB
:102F80001F9018952FB7F8948091BF059091C005B8
:102F9000A091C105B091C2052FBF08950F93CF93A3
:102FA000DF93C42FD22FFC018281882399F04093B4
:102FB00042050E94C21790932E0580932D05C7707D
:102FC00081E001C0880FCA95EAF7DF91CF910F9198
:102FD0000C94560580914205841340C020912D0524
:102FE00030912E059FB7F8944091BF055091C005D0
:102FF0006091C1057091C2059FBF421B530B483CB5
:10300000510560F5C0E2CD0F8D17C1F090E2980F29
:10301000983048F4877091E001C0990F8A95EAF7DB
:10302000892F0E944B05C83048F481E09D2F97708E
:1030300001C0880F9A95EAF70E945605802F0E94DA
:10304000040FC83090F4D77081E001C0880FDA9582
:10305000EAF7DF91CF910F910C944B05C77081E097
:1030600001C0880FCA95EAF7F4CFDF91CF910F9195
:1030700008954F925F926F927F928F929F92AF923C
:10308000BF92CF92DF92EF92FF920F931F93CF9355
:10309000DF9300D000D00F92CDB7DEB76C01FC01FA
:1030A00083819481892B39F01081F180812F8F21C8
:1030B0008F3F09F0E6C60F900F900F900F900F9082
:1030C000DF91CF911F910F91FF90EF90DF90CF9004
:1030D000BF90AF909F908F907F906F905F904F9038
:1030E00008950E94FF0C082F682F89819A810E9401
:1030F000FE04E12FF0E026E0F29EE00DF11D112428
:1031000034E5039FE00DF11D1124EE0FFF1FE45580
:10311000FE4F05911491F60182810932FDE51F07EA
:1031200009F44BC00A322DE5120709F4E0C0023C55
:103130003CE5130709F001C18823E9F090911A01D9
:103140008091C9059F3F09F0F1C010921A018F7E4E
:103150008093C90540E060E080E00E949A064091BB
:10316000C9055091CA056091CB057091CC058FE0DF
:1031700090E00E948B2A8091B605877009F49BCF5E
:10318000F6018281882309F496CF82E00F900F9098
:103190000F900F900F90DF91CF911F910F91FF90A3
:1031A000EF90DF90CF90BF90AF909F908F907F90E7
:1031B0006F905F904F900C94260E8823C9F18091F8
:1031C000C90591E0980F9770887F953008F4892B96
:1031D0008093C9058091C9058770EFEF8E9FC0016C
:1031E00011249595879595958795992790938900B2
:1031F0008093880090938B0080938A0090938D0039
:1032000080938C004091C9055091CA056091CB050F
:103210007091CC058FE090E00E948B2A6091DB05D5
:103220007091DC058091DD059091DE050E94840D92
:10323000F6018281882309F4BDC09801215E3C45D6
:103240002530310508F0B6C06FE1600F6093C50509
:103250008CE090E00E94792AF6019281992309F48A
:1032600038C6109242050230FCE51F0708F41AC662
:1032700006312CE5120738F098012A5F3C452730CB
:10328000310508F00FC60E947B0E9093E0058093F5
:10329000DF050F303CE5130709F406C208F080C1D2
:1032A00008309CE5190709F4E9C108F055C104305C
:1032B000FCE51F0709F4D6C108F03BC102303CE52C
:1032C000130709F4C7C103301C4509F4C7C1609155
:1032D000DF051091E00584E090E00E94792A612FDB
:1032E00081E290E00E94792A0E94051044CF882351
:1032F00009F49ECF9091C905892F877F93FF88603D
:103300008093C90583FF05C040E060E080E00E9433
:103310009A064091C9055091CA056091CB057091FC
:10332000CC058FE090E00E948B2A82CF9FEF909394
:103330001A0180618093C90512CF0C32FDE51F0789
:1033400009F160F40B323DE5130709F071CF8823D2
:1033500009F411CF81E00E9438150DCF0D329DE5A3
:103360001907E9F00E32EDE51E0709F061CF882359
:1033700009F401CF81E00E9438154FEF61E58EED31
:1033800090E00AC0882309F4F6CE81E00E94381547
:103390004FEF6DE58CE890E00E94C014ECCE8823DE
:1033A00009F4E9CE81E00E9438154FEF6FEF8FE10D
:1033B00090E0F2CF17FF74C0882309F44DCF8091BD
:1033C000B905809341051092B9058091C5058130FA
:1033D00009F441C08823D9F1823009F449C084300E
:1033E00009F44DC08FE39CE90197F1F700C000009C
:1033F0005801E894B7F8ECE0EE2EF12C95010E2C74
:1034000002C0369527950A94E2F72F7087E290E084
:1034100029F0822F90E02A30B8F54D960E94040FD3
:1034200094E0E91AF108ECEFEE16EFEFFE0631F743
:103430008091C505813071F1882341F1823031F1ED
:10344000843061F1809141058093B90505CF82EE0A
:103450000E94D605C7CF83E00E94410588E10E9403
:10346000D60588E10E94A40583E00E943605BACF04
:1034700082EE0E94D60587E50E94040FB3CF86EE48
:103480000E94040F88E1F8CF0697C8CF82EE0E9411
:10349000A405D8CF8CE20E94040FD4CF88E2FBCFE2
:1034A000033FFCE51F0769F1B0F4083D3CE5130755
:1034B00011F1093D8CE51807B1F1073D9CE51907AD
:1034C00009F0CACE06E221EE41EE67ED7CE5C601C9
:1034D0000E94CE1750CE053FECE51E07F1F0B8F084
:1034E000063F2CE5120709F0B7CE07E225EE46EEBF
:1034F00066EF7CE5ECCF07E225EE45EE68ED7CE576
:10350000E6CF06E221EE40EE63EF7CE5E0CF07E296
:1035100025EE44EE64EF7CE5DACF06E221EE42EEE2
:1035200065EF7CE5D4CF08E221E045EE69ED7CE56E
:10353000CECF8091DF05806106309CE5190709F444
:1035400047C08091DF05886007301C4508F440C003
:103550008091DF0580623CC00B30FCE51F0709F459
:103560009BC068F409303CE5130709F48BC00A30AE
:103570001C4509F0ACCE8091DF058C6029C080919C
:10358000DF058B7F0D309CE5190711F18091DF0578
:103590008D7F0E301C45E0F08091DF05877F18C0DD
:1035A0000A3FFCE51F0709F461C060F502313CE504
:1035B000130709F481C078F400319CE5190709F478
:1035C00077C08091DF058F7B01311C4509F07FCEEC
:1035D0008093DF057CCE0431FCE51F0709F47AC037
:1035E00008F470C005311C4509F071CE8091DF05EB
:1035F00082FB992790F921E0922790FB82F990FBBA
:1036000083F9E6CF0D3F8CE5180709F449C070F443
:103610000B3FECE51E0771F18091E0058E7F0C3FBA
:103620001C4509F054CE8093E00551CE0F3F2CE5A8
:10363000120709F44BC060F101151D4509F047CE92
:103640008091E005982F909591708E7F892B90FB4B
:1036500081F9E9CF8091DF058160BACF8091DF05E4
:103660008260B6CF8091DF058460B2CF8091E005A3
:103670008160D9CF8091E0058260D5CF8091DF0550
:103680008064A6CF0E9405108091DF058068A0CFDE
:103690008091E0058360C7CF8091DF058E7F98CF52
:1036A0008091E0058D7FBFCF8091DF058F7E90CF29
:1036B0008091DF058F7D8CCF0E9405108091DF0502
:1036C0008F7786CF8091DF05837F82CF8091E00561
:1036D0008C7FA9CF0E9405109091DF05892F97FB61
:1036E00087F9805875CF992309F45CC08091B9059A
:1036F0008272F801E25CFC45E431F10508F049C052
:10370000EF5DF44D0C94B8288091360691E089273E
:103710008093360610921C010E94B8142CCD45E20D
:1037200055E16EE275E10E94500625CD4EE255E16D
:1037300065E275E1F8CF4DEF54E166E075E1F3CF56
:1037400046E055E16DEF74E1EECF45EE54E161EFF7
:1037500074E1E9CF41EF54E165EE74E1E4CF4DEC63
:1037600054E169ED74E1DFCF49ED54E16DEC74E1B2
:10377000DACF44E455E16AE375E1D5CF4AE355E198
:1037800064E475E1D0CF85E0E6CD8DE0E4CD82E163
:10379000E2CD0115ECE51E0709F44EC00E3D1C45B7
:1037A00009F487C0F60100811181992309F484C0CE
:1037B000C8010E94FF0CF82E682FC8010E94FE0469
:1037C000B8018F2D0E94670B082FF92EB82EF60135
:1037D000E580E2947FE0E722128111111092B80592
:1037E0008091B6058770C1F01123B1F08F2D807FD5
:1037F000803449F090E2900F983070F0803619F4E0
:10380000F6EFBF1649F082E00E94260E8091B605C1
:103810008770AA24A3948111A12C9F2C92945FE01D
:1038200095226BE0462E491408F481C0E92DF0E0A2
:10383000EB5CF44D0C94B8280E9405102FEF34E394
:103840008CE0215030408040E1F700C00000F89447
:1038500081E08093E00080E28093D8001092C9005C
:10386000EFE1FEE43197F1F700C000001DBA1092BD
:1038700068001CBC10BE1FBA10927A0010926E0035
:1038800010926F0010927100109272001092C90095
:103890001092BC0014B817B81AB81DB810BA10921C
:1038A000BC0015B818B81BB81EB811BA0C94003F6C
:1038B00062CC0E94910F5FCCC8010E94D504F82E03
:1038C0007FCF2F2D2F70E22E8F2D807F19F0E29465
:1038D00040EFE4221123C9F0EE2069F080E2800F6E
:1038E000883010F0B1100BC08091B905E82AE09241
:1038F000B9050E949004802F0E94D60518C08091BF
:10390000B805E82AE092B805F4CF802F0E94A405FC
:10391000EE2069F0E094005E083010F0B11057C05E
:103920008091B905E822E092B9050E949004292D02
:103930002850330B2430310510F40E944406112323
:1039400079F08F2D807F803619F436EFB31641F071
:1039500080914405823009F08CC283E08093440555
:10396000AA20A9F08091B60580FD11C0F60112824F
:103970008595859585950E943E0EC6010E94391851
:103980008091B6058595859585950E94030E85E005
:10399000F601DE01119601900D928A95E1F7898179
:1039A0009A810E94D5049A81E981F0E026E0929FF5
:1039B000E00DF11D112434E5839FE00DF11D11246C
:1039C000EE0FFF1FE455FE4F8591949174CB8091CB
:1039D000B805E822E092B805A8CF3F2D3F70832EAE
:1039E0008F2D807F803219F0829430EF8322BB20AC
:1039F00041F081E0B81631F1112381F1EE2049F157
:103A00007ACF112391F09091BA05892F8829E1107E
:103A100003C00E9456058BCFE1E0EE12FACF981753
:103A200009F485CF8093BA0582CFE11006C00E94C9
:103A30008A04882D0E944B057ACFF1E0EF1609F435
:103A400076CFF5CF112339F0442443944E1408F473
:103A50006ECF882DDECFE1106ACFEBCFEE2049F399
:103A600029E3522EB51009C02FEF37EE83E0215025
:103A700030408040E1F700C00000802F0E94A40584
:103A800056CF8F2D86958695837069F0813009F029
:103A90004ECF802F9F2D9370111102C090E080E0D7
:103AA0000E94600544CF802F9F2D9370111102C09A
:103AB00090E080E00E9476053ACF8F2D837009F068
:103AC00067C0111134CF202F229526952770220F21
:103AD000220F402F4F7050E070E060E0022E04C0D3
:103AE000440F551F661F771F0A94D2F780E090E0BD
:103AF000DC0104FF0FC08FE090E0A0E0B0E004C064
:103B0000880F991FAA1FBB1F2A95D2F78095909501
:103B1000A095B0952F2D269526952370223029F15A
:103B2000D8F44090BB055090BC056090BD057090E6
:103B3000BE05213069F0842B952BA62BB72BBC0139
:103B4000CD0164217521862197210E949A05EFCE2F
:103B500044295529662977292A013B01482A592AEF
:103B60006A2A7B2AC301B201F0CF842B952BA62BA6
:103B7000B72B4090BB055090BC056090BD05709080
:103B8000BE05BC01CD016425752586259725DDCFB1
:103B90008695112311F08F2D8170882309F4C7CEEB
:103BA000202F229526952770220F220F402F4F702D
:103BB00050E070E060E0022E04C0440F551F661F05
:103BC000771F0A94D2F780E090E0DC0104FF0FC079
:103BD0008FE090E0A0E0B0E004C0880F991FAA1F1A
:103BE000BB1F2A95D2F780959095A095B0952F2D63
:103BF000269526952370223029F1D8F44090DB05D4
:103C00005090DC056090DD057090DE05213069F094
:103C1000842B952BA62BB72BBC01CD0164217521DC
:103C2000862197210E94F70D82CE442955296629C5
:103C300077292A013B01482A592A6A2A7B2AC3018B
:103C4000B201F0CF842B952BA62BB72B4090DB0530
:103C50005090DC056090DD057090DE05BC01CD0163
:103C60006425752586259725DDCF2F2D2F70E22E13
:103C7000112329F0822F0E943E0E802FCACE802F62
:103C80000E944B058E2D0E94030E51CE802F32EFE5
:103C9000B31609F452C03B1578F090EFB91629F12C
:103CA000E1EFBE1609F441C0112309F46AC0E11026
:103CB00022CE8F2D8F713EC0F3EFBF1609F442C0A4
:103CC00094EF492EB410F0CF112309F44FC00F2DFB
:103CD0000F71802F0E943E0E28E0029FC001112428
:103CE00083608093B605802F25C01123C1F0E110B9
:103CF0001ECE2F2D2F7161E070E080E090E004C0B7
:103D0000660F771F881F991F2A95D2F74090DB0511
:103D10005090DC056090DD057090DE05A1CF552444
:103D200053945E1408F403CEE4CF8F2D8F711123CA
:103D300009F4A9CF0E943E0EFACD8F2D8F71112369
:103D4000C9F3A1CF60E070E0CB01112309F46ACF81
:103D50002F2D2F7161E070E080E090E004C0660FCD
:103D6000771F881F991F2A95D2F75CCF81E00E94A8
:103D7000260E31E03E1508F0DACD82E00E94260ED4
:103D8000D6CDEE2059F0893309F077CE8FEF97EE3C
:103D9000E3E081509040E040E1F76DCE8F2D8F71D0
:103DA00072CFE0E1E00FE73008F03EC0F0E0EF5BFB
:103DB000F44D0C94B828112309F4B9CD809146052F
:103DC00091E0892780934605B2CD10934605AFCD8B
:103DD00081E08127F7CF1111AACD81E0F3CF111136
:103DE000A6CD10924605A3CD112321F082E0809349
:103DF0004405F3CF80914405823021F481E0809323
:103E0000440595CD833009F092CD10924405E9CF59
:103E1000112339F080914505882381F210924505E0
:103E200086CDEE2059F283CD80914505EE20A9F094
:103E3000882341F08091460591E0892780934605CB
:103E400010924505802F111157CD0E94A40586E0E0
:103E5000F60111928A95E9F76ACD882309F467CDB6
:103E6000111165CD8091460591E089278093460523
:103E7000D5CF813009F074CD1092440510924605DB
:103E80006FCD85E0DE01119601900D928A95E1F7E4
:103E9000F601228189819A81211123C90E94D504CA
:103EA000082F27C90631FCE51F0709F01CCC8091BB
:103EB000B9058A7A91E009F490E09093430569E2AC
:103EC000811165E386EA93E00E9455040E94900404
:103ED00052C906311C4509F065CC8091430569E261
:103EE000811165E386EA93E00E942B04EFCF1F93D4
:103EF000CF93DF9380914C05807FA9F48091490591
:103F0000882389F080917E05D0914D056091470509
:103F100070914805A0914A05B0914B05C62FC72363
:103F200016E0D81304C0DF91CF911F91089590E05F
:103F3000109711F0CF3F19F401968770F2CF189FB8
:103F40009001199F300D1124F901E25BFA4F418174
:103F50004713F2CF40814613EFCF42814111ECCF9E
:103F6000438154814A1B5B0B483C510528F78091E3
:103F70004C058F70806180934C05F901ED5AFA4F22
:103F800080818F708061808387E495E00E9439187A
:103F9000DF91CF911F910C942C05AF92BF92CF92DD
:103FA000DF92EF92FF920F931F93CF93DF93CDB7E2
:103FB000DEB761970FB6F894DEBF0FBECDBF8C01A0
:103FC00085E0F801DE011D9601900D928A95E1F7DA
:103FD000F80180819181E28027E4A22E25E0B22EB3
:103FE00060914A0570914B056115710509F43EC158
:103FF0003091470540914805232F24232F3F09F492
:1040000035C1C380D480F0904905F601E61BF70B5B
:10401000FF2009F4FBC020914C05522F507FE83C53
:10402000F10508F0BBC0511178C0FE2C491321C026
:1040300038131FC0E1101DC02F70206120934C0564
:10404000C5010E94391880914C05F80185838F2D98
:1040500061960FB6F894DEBF0FBECDBFDF91CF9152
:104060001F910F91FF90EF90DF90CF90BF90AF9096
:104070000895CD2829F0282F29232F3F09F022C1A8
:1040800020E0F22FF170DF2E20FF3DC020917E0551
:1040900040914D0556E0241315C08D879E878D8570
:1040A0009E850E94410D292F22952F702230F8F015
:1040B000243020F59F70F9F0F8019581907FD9F4B4
:1040C000D12C1FC030E0529FF001539FF00D1124FE
:1040D000E25BFA4F6181961306C06081861303C0CC
:1040E0006281E61210C02F5F3F4F2770D4CF9F70C0
:1040F00011F0882329F3805E883010F3C8010E94F4
:104100003918FD2CA4CFEE2009F4A1CF80914C05E5
:10411000816080934C05F12C9ACF491312C038135B
:1041200010C0E1100EC0F8012583C8010E943918A3
:1041300086E0F801A7E4B5E001900D928A95E1F7D9
:1041400086CF8D879E878D859E850E944B0D882307
:1041500009F1EE20F9F080914C05803270F0209149
:1041600047053091480538872F831986DB86CA8634
:104170008C87CE0107960E94391886E0F801A7E4E3
:10418000B5E001900D928A95E1F70E94771FFF2418
:10419000F3945DCFC8010E943918F9CF51110AC0BC
:1041A00087E495E00E94391886E0F50111928A951E
:1041B000E9F7B1CF49130FC038130DC0E1100BC0A0
:1041C000F8012583C8010E94391886E0F501119293
:1041D0008A95E9F73CCF8D879E878D859E850E94C5
:1041E0004B0D8823B9F2EE20A9F280914C05803264
:1041F00020F220914705309148053A8329831B829C
:10420000DD82CC828E83CE010196B5CFE83CF105EC
:10421000E0F6FE2CEE2009F4BDCF491316C038138A
:1042200014C080914C0580FD83CF982F907F09F4B6
:104230007FCFF8018583903F09F477CF982F907F47
:10424000905F8F70892B858370CF8D879E878D853A
:104250009E850E944B0D811190CF80914C0581600D
:1042600080934C05C8010E943918F1CEEE2009F464
:1042700091CF8D879E878D859E850E944B0DF82E50
:10428000882309F487CF86E0F801A7E4B5E0019020
:104290000D928A95E1F780914705909148050E941B
:1042A000410D92959F70963051F4863F41F0809178
:1042B000460591E0892780934605909345050E9425
:1042C000771FC5CE21E02E25DCCE1F93CF93DF9341
:1042D000CDB7DEB767970FB6F894DEBF0FBECDBF80
:1042E0006D8B7E8B8F8B8E899F89892BE1F0852F3B
:1042F00084238F3F09F098C05FEF4FEF14C03091D7
:104300004605332309F44EC0E42FF0E036E0539F16
:10431000E00DF11D1124EE0FFF1FE851FE4F40810B
:104320005181822B8C931A8A198A4B8B5C8B85E086
:10433000FE017396DE011D9601900D928A95E1F7BC
:1043400086E0FE013D96DE01179601900D928A955A
:10435000E1F7CE0107960E94CD1F811112C086E0C1
:10436000FE013796DE01119601900D928A95E1F7D4
:104370008A859B85892B29F08F81988589238F3F9A
:10438000C9F516E080917E0590914D05891320C0F6
:1043900067960FB6F894DEBF0FBECDBFDF91CF9109
:1043A0001F91089580958223BDCF96E0929FD00102
:1043B000939FB00D1124A25BBA4FFE01319601907C
:1043C0000D929A95E1F780934D050E942C05D9CF67
:1043D000819FC0011124825B9A4F0E94CD1F8823C8
:1043E000B9F280917E0590E00196877099278093BD
:1043F0007E05C8CF20914D0530E0C9010196877038
:10440000992740917E054817190679F60E940510F4
:1044100010924D0510927E0586E0E7E4F5E0DF019D
:104420001D928A95E9F7ADCF81E090E0042E01C09E
:10443000880F0A94EAF7A52FB0E0AD5CBA4F2C9133
:104440003D8931115CCF322F38235BCF8F929F9201
:10445000AF92BF92CF92DF92EF92FF920F931F9392
:10446000CF93DF9380910C0190910D01892BA1F0E6
:104470008091C7038F5F8093C70381110DC00E9495
:104480007B1590E090930D0180930C01892B21F412
:104490000E94170F0E945F15EDEC8E2EE5E09E2E18
:1044A000740100E010E077E0C72EC10E812F0E945A
:1044B000F2158C2D0E94F215812F0E944616E701FD
:1044C00099917E01D12C891729F0FE0131978083C3
:1044D000DD24D3948C2D0E944616F701968189170E
:1044E00009F47CC0868381E08D29082B0E945F0E31
:1044F0001F5F1730C1F60E94C2176091C903709107
:10450000CA039093CA038093C9032091C80330E083
:10451000261B370B820F931F6BEF70E00E949028D1
:10452000E82E392F182F8093C803F090CC03FF207A
:1045300009F4D3C21092CC03E091C305F091C405F5
:10454000AF01425F5F4F20E06BEFB62E6BEF70E084
:10455000A191AB3FA1F0CA2ED12C8E2D932F1A170B
:1045600008F43EC08C199D09092E000CAA0BBB0B48
:104570004E97A105B105D0F1DF011197BC92E41768
:10458000F50731F72093CC03011102C02111A7C216
:104590001092CB03A091C305B091C4059091CC03B8
:1045A000E4EEF5E042EF55E080E03191E40129913D
:1045B0004E01321751F03C913B3FD1F41C93BF01A7
:1045C00061507109EB01288391E011964E175F0746
:1045D00061F79093CC038093CB0385C280E084CFB6
:1045E000DB01AC19BD098A0F9B1FBECF2F2DC7CF92
:1045F00081E0EBCF109219014093320650933306BD
:10460000609334067093350681E080931C0199C253
:1046100080910B01C1E018130BC020913606237066
:1046200080910A0190E0C1E02817190609F4C0E062
:10463000C170C0931B01193140F4E12FF0E0E85B39
:10464000F44D0C94B828C11102C0C0E027C040E06E
:1046500060E080E00E949A06F8CF80911901C82F8F
:10466000CC0FCC0FC80F45E0F42EFC0EEF2CD0E39E
:10467000DF1510F430E3E32E6091370670913806B1
:10468000809139060E940B09D62EC72EB82ED0E095
:10469000CE15B0F0C1E0FFE2FF15B8F2809119012C
:1046A0008F5F80931901C1114CC282E080931C017D
:1046B00080911B01811145C2111143C283E0A5CF36
:1046C000FE01EB58FC4F808190911A01892331F053
:1046D0002B2D4D2D6C2DCE010E949C062196D8CFFE
:1046E00080911901C82FCC0FCC0FC80F25E0F22EF6
:1046F000FC0EEF2C20E32F1510F490E3E92EC09070
:104700003806D0903906D09137066D2F7C2D8D2D2F
:104710000E940B09B62EA72E982E60913A066D0FB7
:104720007C2D8D2D0E940B09D62EC72E882ED0E011
:10473000CE1530F0C1E08FE28F1508F0AFCF85CFF6
:10474000FE01EB58FC4F908180911A01892359F0AA
:10475000282D4D2D6C2D90FD03C0292D4B2D6A2D3C
:10476000CE010E949C062196E3CF80911901C82FAB
:10477000CC0FCC0FC80F85E0F82EFC0EDF2C90E399
:104780009F1510F4D0E3DD2EC0903806B0903906A6
:1047900020913A06B0E4EB2E3E2D329F312D1124AC
:1047A000E32ED0E0CD1530F0C1E09FE29F1508F078
:1047B00075CF4BCFFE01EB58FC4F808190911A01D1
:1047C0008923B9F0FE01EE0FFF1FEA5EFC4F8081E6
:1047D00082958F70609137068E9D600D11247C2D1F
:1047E0008B2D0E940B09462F282F672FCE010E9488
:1047F0009C062196D7CF80911901C82FCC0FCC0FE2
:10480000C80FE5E0FE2EFC0EDF2CD0E3DF1510F420
:1048100070E3D72EC0903806B090390620913A0642
:1048200060E4E62E3E2D329F312D1124E32ED0E0A0
:10483000CD1508F0B9CFFE01EB58FC4F8081909167
:104840001A018923D9F0FE01EE0FFF1FEB5EFC4F2A
:104850006081E69EB001112455E0759567955A95E3
:10486000E1F780913706680F7C2D8B2D0E940B0994
:10487000462F282F672FCE010E949C062196D8CF65
:1048800080911901C82FCC0FCC0FC80F35E0F32E43
:10489000FC0EEF2CD0E3DF1510F420E3E22ED090D5
:1048A0003706D0913806C090390660913A06669571
:1048B0006695669580913206909133060E940109B3
:1048C0000E948A08805887FD8195880F282F3C2DEB
:1048D000239F212D1124822F6D2D7D2F0E940B09E6
:1048E000D62EC72EB82ED0E0CE1508F05DCFFE0133
:1048F000EB58FC4F808190911A01892331F02B2DC8
:104900004D2D6C2DCE010E949C062196EDCF85E9A0
:1049100097E00E94DA0AC82FC1CE8BE697E0F9CF64
:104920008CE698E00E947E0AF6CF8DE498E0FACFFC
:1049300082E398E00E94010AEECF86E198E0FACF88
:1049400089E697E0E6CF80E697E0E3CF87E597E05A
:10495000E0CF8EE397E0DDCF80E397E0EBCF89ED0A
:1049600098E0E0CF85E098E0DDCF81EF97E0E2CFFF
:1049700083E097E00E949F09CECF85ED96E0FACFC5
:104980008EE996E0F7CFC1111EC060913A0620E192
:10499000620F08F46FEF80913206909133060E9407
:1049A00001096AE070E00E949028892B09F04DCE41
:1049B0000E940A2960E370E00E94A42860911A0115
:1049C0000E9472146BCE80911901C82FCC0FCC0FAE
:1049D000C80F95E0D92EDC0E8D2DD0E3DD1508F43F
:1049E00080E3D0E0E82EF12CCE15DF0534F0C1E0F5
:1049F000EFE2ED1508F052CE28CE60911A01CE01FB
:104A00000E9472142196F0CFC1111EC060913A0627
:104A100020E1620F08F46FEF809132069091330627
:104A20000E94010965E070E00E949028892B09F03E
:104A30000CCE0E940A2960E370E00E94A4286091D5
:104A40001A010E9450142ACE80911901C82FCC0F50
:104A5000CC0FC80F85E0D82EDC0E8D2DF0E3FD15B0
:104A600008F480E3D0E0E82EF12CCE15DF0534F019
:104A7000C1E02FE22D1508F011CEE7CD60911A01AB
:104A8000CE010E9450142196F0CF10930B0180911B
:104A90003606837080930A010E9404130FCE409162
:104AA00032065091330660913406709135062FB767
:104AB000F8948091BF059091C005A091C105B09177
:104AC000C2052FBF841B950BA60BB70B4A97A105F8
:104AD000B105B8F110921C0134C0011159CD80917B
:104AE000CB03811155CD8FB7F8944091BF055091FC
:104AF000C0056091C1057091C2058FBF4093CD0381
:104B00005093CE036093CF037093D003809103063C
:104B100010E0811108C080913606182F137019F02B
:104B2000182F1695169580911C01813009F470CDCF
:104B3000882309F45FCD823009F4A7CF833009F4CC
:104B4000AECF802FDF91CF911F910F91FF90EF900B
:104B5000DF90CF90BF90AF909F908F900895CDB78A
:104B6000DEB72A970FB6F894DEBF0FBECDBF84B76D
:104B7000877F84BF0FB6F894A89580916000886104
:104B800080936000109260000FBE80E890E00FB646
:104B9000F89480936100909361000FBE85B78068A0
:104BA00085BF85B7806885BF0E949D020E9468030B
:104BB0008091E20084608093E200789480912806DE
:104BC0008823A1F01091E9001F709091EC00892FCB
:104BD000817090FD80E8182B1092E9008091E80028
:104BE00083FD0E941A101F701093E90082E084BDBB
:104BF00093E095BD9AEF97BD80936E000E947B1560
:104C000090E090930D0180930C010E945F0E0E9432
:104C10006E0EEDECF5E0A4EEB5E011921D9225E0EC
:104C2000EB3DF207D1F78EE090E00E941A298093C5
:104C3000C3059093C405FC010E962BEF21938E17AC
:104C40009F07E1F790E080E00E94632A8F3E9E4F2D
:104C500011F00E94910F0E945F158CE090E00E947D
:104C6000552A90E0B0E0A0E08093C5059093C6057A
:104C7000A093C705B093C80589EA8093800089E0B6
:104C80008093810024982C983F988AB18F7C8AB9B0
:104C90006E98479A8BB180638BB9769A8FE090E0DB
:104CA0000E945D2A6093C9057093CA058093CB0565
:104CB0009093CC0567708FEF869FB0011124759596
:104CC000679575956795772770938900609388003D
:104CD00070938B0060938A0070938D0060938C00BA
:104CE0009091C90594FF8FC080931A010E94170FFD
:104CF00090E080E00E94632A8F3E9E4F11F00E9458
:104D0000910F82E090E00E94552A8093F3050E9463
:104D10007B0E9093E0058093DF0583E090E00E9496
:104D2000552A682F70E090E080E00E949A0560911B
:104D3000DB057091DC058091DD059091DE050E9418
:104D4000840D80913606837011F410921C018091BD
:104D500036068C7F8160809336068EE091E09093DA
:104D6000E2058093E105EE24EA949924939482EF7E
:104D7000C82E85E0D82E90E1792E22E1822E38E1EE
:104D8000A32EB12C40E4642E80912806853009F4CE
:104D90003DC00E942622A4EFB5E0E4EEF5E010E06D
:104DA00000E0302F81912D91281709F488C090E000
:104DB000FF24F3942827422F4F2109F47BC09983C5
:104DC0003A838F2191E009F490E09B830E94C217FF
:104DD0008160782F9D838C8349815A816B818D817D
:104DE0000E946521F801EC50FA4F8081F826F0828C
:104DF0000E9444069091F205891731F20E94440600
:104E00008093F205C1CF10921A0170CF40E060E0AC
:104E100080E00E949A0690920306809128068430D2
:104E200041F11092E3050FB6F894A895A0926000A6
:104E30000FBE6092600040E060E080E00E949A0651
:104E40009092030683B7817F846083BF83B78160BC
:104E500083BF7894889583B78E7F83BF0FB6F8940D
:104E6000A895809160008861809360001092600036
:104E70000FBE80912706882309F486CF0E947B15F8
:104E800090E090930D0180930C010E945F0E0E94B0
:104E90006E0EE4EEF5E01192CE16DF06E1F70E9409
:104EA0002622E4EEF5E0819181111FC0CE16DF06C7
:104EB000D1F76ACF9F5FFF0C963009F07CCF0F5F70
:104EC0001F4F0E30110509F06CCFEE82EF8218866D
:104ED0000E94C2178160782F9A8789874E815F81EF
:104EE00068858A850E94652183CF79BC89BC09B415
:104EF00000FEFDCF8091D8008F7D8093D8008091F7
:104F0000E00082608093E0008091E00081FDFCCFB2
:104F10003BCF1F921FB61F9211248F939F93AF9385
:104F2000BF938091E305811113C08091BF059091DB
:104F3000C005A091C105B091C2054196A11DB11D4A
:104F40008093BF059093C005A093C105B093C2059F
:104F5000BF91AF919F918F911F901FBE1F90189589
:104F60001092B9008CE08093B8000895EF92FF9200
:104F70000F931F93CF93DF93182FEB011092BC0078
:104F800084EA8093BC000E94C2177C018091BC001F
:104F900087FF27C08091B900887F883029F08091F1
:104FA000B900887F8031D9F51093BB0084E88093E5
:104FB000BC000E94C2178C018091BC0087FF24C0F6
:104FC0002091B900287F90E080E02831B1F081E0A5
:104FD00090E0203411F490E080E091958195910962
:104FE0000CC0CF3FDC0791F20E94C2178E199F09B7
:104FF0008C179D0758F28EEF9FEFDF91CF911F9195
:105000000F91FF90EF900895CF3FDC07A9F20E9427
:10501000C217801B910B8C179D0770F2ECCF8FEF9E
:105020009FEFEBCF0F931F93CF93DF93EB01809311
:10503000BB0084E88093BC000E94C2178C01809161
:10504000BC0087FF11C02091B900287F81E090E06B
:10505000283211F490E080E0919581959109DF91DB
:10506000CF911F910F910895CF3FDC0741F30E942C
:10507000C217801B910B8C179D0708F38EEF9FEFD3
:10508000EECF0F931F93CF93DF93EC0184E88093CF
:10509000BC000E94C2178C018091BC0087FF08C031
:1050A0008091BB0090E0DF91CF911F910F91089507
:1050B000CF3FDC0789F30E94C217801B910B8C172E
:1050C0009D0750F38EEF9FEFEECFCF92DF92EF92DE
:1050D000FF920F931F93CF93DF936B018A017901A6
:1050E000B9010E94B627E6010C0D1D1DC017D1079E
:1050F00061F424E92093BC00DF91CF911F910F91BF
:10510000FF90EF90DF90CF90089597FDF2CFB70119
:1051100089910E941228EACF84E98093BC00089507
:10512000AA1BBB1B51E107C0AA1FBB1FA617B707CD
:1051300010F0A61BB70B881F991F5A95A9F78095E9
:105140009095BC01CD01089597FB072E16F40094AD
:1051500007D077FD09D00E94902807FC05D03EF4C7
:10516000909581959F4F0895709561957F4F089513
:10517000EE0FFF1F0590F491E02D09948F929F92FE
:10518000AF92BF92CF92DF92EF92FF92CF93DF93D5
:10519000EC01688179818A819B81611571058105A6
:1051A000910521F464E279ED8BE597E02DE133EF91
:1051B00041E050E00E949D2A49015A019B01AC0147
:1051C000A7EAB1E40E94BC2A6B017C01ACEEB4EF0B
:1051D000A50194010E94CA2ADC01CB018C0D9D1D02
:1051E000AE1DBF1DB7FF03C00197A109B04888835A
:1051F0009983AA83BB839F77DF91CF91FF90EF9034
:10520000DF90CF90BF90AF909F908F9008950E94B5
:10521000BE28089580E091E00E94BE280895B0E085
:10522000A0E08093000190930101A0930201B0934C
:10523000030108950F931F93CF93DF93823091055D
:1052400010F482E090E0E0913D06F0913E0630E0FF
:1052500020E0B0E0A0E0309799F42115310509F481
:1052600047C0281B390B24303105C0F58A819B814A
:105270006115710571F1FB0193838283FE0111C0F9
:10528000408151810281138148175907F8F048176E
:10529000590799F4109761F012960C931297139690
:1052A0001C933296CF01DF91CF911F910F910895FA
:1052B00000933D0610933E06F4CF2115310519F0F9
:1052C0004217530718F49A01BD01EF01DF01F801FD
:1052D000C2CF90933E0680933D06D0CFFE01E20FF1
:1052E000F31F819391932250310939832883DACFB8
:1052F00020913B0630913C06232B41F4209106017E
:105300003091070130933C0620933B062091040125
:10531000309105012115310541F42DB73EB740917B
:10532000080150910901241B350B40913B06509117
:105330003C064217530708F0B5CF241B350B28173E
:10534000390708F4AFCFBC016E5F7F4F26173707D0
:1053500008F4A8CF640F751F70933C0660933B065A
:10536000FA01819391939ECFCF93DF930097E9F059
:10537000FC01329713821282C0913D06D0913E0605
:10538000DE0130E020E02097A1F420813181820FFE
:10539000931F20913B0630913C062817390709F0EE
:1053A00067C0F0933C06E0933B06DF91CF910895F0
:1053B000DA01AE17BF0708F040C012964D915C911C
:1053C00013979D014115510599F7D9011396FC9347
:1053D000EE9312974D915D91A40FB51FEA17FB074D
:1053E00079F4808191810296840F951FD9011196DD
:1053F0009C938E938281938113969C938E931297A4
:10540000B0E0A0E08A819B810097B9F5FE0181910F
:105410009191E80FF91F80913B0690913C068E1701
:105420009F0719F6109761F510923E0610923D06FF
:10543000D0933C06C0933B06B8CFB383A283408190
:105440005181840F951FA817B90771F44E5F5F4F04
:105450008D919C911197480F591F5183408312964B
:105460008D919C91938382832115310509F0ADCFF5
:10547000F0933E06E0933D0698CFDE01EC01C2CFEB
:1054800013961C921E921297D3CFDC01CB01FC0124
:10549000F999FECF06C0F2BDE1BDF89A319600B48D
:1054A0000D9241505040B8F70895F999FECF92BD42
:1054B00081BDF89A992780B50895A6E1B0E044E04F
:1054C00050E00C94472AA8E1B0E042E050E00C9490
:1054D000472ADC01A40FB51F4150504048F0CB01D2
:1054E000840F951F2E910E947A2A41505040D0F788
:1054F0000895262FF999FECF92BD81BDF89A0197A4
:1055000000B4021639F01FBA20BD0FB6F894FA9A0B
:10551000F99A0FBE08950396272F0E947A2A0E94B7
:10552000792A252F0E947A2A242F0C947A2A019610
:10553000272F0E947A2A0C94792A052E97FB1EF4B5
:1055400000940E94B42A57FD07D00E94CF2A07FC7E
:1055500003D04EF40C94B42A509540953095219583
:105560003F4F4F4F5F4F089590958095709561958F
:105570007F4F8F4F9F4F08950E94F12AA59F900D56
:10558000B49F900DA49F800D911D11240895B7FF25
:105590000C94BC2A0E94BC2A821B930B0895A1E2A2
:1055A0001A2EAA1BBB1BFD010DC0AA1FBB1FEE1F9D
:1055B000FF1FA217B307E407F50720F0A21BB30BE8
:1055C000E40BF50B661F771F881F991F1A9469F764
:1055D00060957095809590959B01AC01BD01CF01C0
:1055E0000895A29FB001B39FC001A39F700D811DBC
:1055F0001124911DB29F700D811D1124911D0895DC
:10560000F894FFCF5A0D5A0D630D630D650D630DB0
:10561000630D630D5A0D5A0D6A0D630D630D6A0D0E
:10562000DE0DEA0DEF0DE80DED0DF40DF20DFD10A0
:105630002511C7122511C71258117911C7128212EC
:105640008F12841B8F1B961B9B1BA01BA51BAA1BC9
:10565000AF1BB41BB91BBE1BAA19C31BC51BC71BA1
:10566000BB18BB18BB18BB18BB18611C611CED1C18
:10567000ED1C411D971CD11E971C5D1D351E461E3D
:10568000461EDB1E081FE51EE81EEF1EEB1EF41E65
:1056900023232D237023B523FB23402487248D242B
:1056A0009024952498249D24A024A324A624A924EE
:1056B000AC24AF24B224B524B824BD24C024C32410
:0256C0000425BF
:1056C2000100000000003F062000FFFF2000280428
:1056D200C40E2704C00EBC0E0100FF000300FFFF32
:1056E200003131295A1B750A004434540074648411
:1056F2000055456500857595003626460066567646
:10570200009686A600372747007767870038284823
:10571200008878980039294900695979009989A93E
:10572200003A2A4A006A5A7A003B2B4B006B5B7B99
:10573200004C3C5C007C6C8C005D4D6D008D7D9D51
:10574200003E2E4E006E5E7E014434540174648429
:1057520001554565018575950136264601665676E1
:10576200019686A6013727470177678701382848BF
:10577200018878980139294901695979019989A9DA
:10578200013A2A4A016A5A7A013B2B4B016B5B7B35
:10579200014C3C5C017C6C8C015D4D6D018D7D9DED
:1057A200013E2E4E016E5E7E000D010D020D030DB7
:1057B200040D050D000C010C020C030C040C050C6D
:1057C200000B010B020B030B040B050B000A010A71
:1057D200020A030A040A050A000901090209030967
:1057E200040905090008010802080308040805085D
:1057F2000007010702070307040705070006010661
:105802000206030604060506000501050205030556
:10581200040505050004010402040304040405044C
:105822000003010302030303040305030002010250
:105832000202030204020502000101010201030146
:10584200040105010000010002000300040005003C
:10585200818283E200E900EA00B500B600B700CD1C
:10586200008301CC008A01920194012102230224C7
:10587200022502260227022A02B300B4006F00703A
:1058820000FFFFFFFFFFFF1C21262B2FFF1B202500
:105892002A2EFF1A1F24292DFF191E23282CFF1838
:1058A2001D2227FFFFFFFFFFFFFFFFFFFFFFFFFF9D
:1058B200FF00050A0FFFFF01060B1014FF02070C81
:1058C2001115FF03080D1216FF04090E1317FFFF2F
:1058D200FFFFFFFFFF89009A00AC00BD00CE0089E8
:1058E2000C9A0CAC0CBD0CCE0C89199A19AC19BDD2
:1058F20019CE1989269A26AC26BD26CE269A33AC15
:1059020033BD33CE3356004400330022001100561B
:105912000C440C330C220C110C5619441933192265
:1059220019111956264426332622261126443333CA
:10593200332233113304040404040404040404046D
:105942000404040404040404040101010104040421
:105952000404040404040404040404040404040405
:0659620004010101010037
:00000001FF
